:1010FE0049543837335820436F64656261736520F5
:10110E0056312E30202D20436F70797269676874C6
:10111E002049544520546563682E20496E632E0085
:10112E001062106210621062106210621062106221
:10113E0010211022103710621062106210621061BE
:10114E00104D106210621062106210621062106216
:10115E001000100110621011106210621065106202
:10116E0010621062106210621062106210631064DE
:10117E0010621062106210621062106210621062D1
:10118E0010621062106210621062106210621062C1
:10119E0010621062106210621062106210621062B1
:1011AE0010621062106210621062106210621062A1
:1011BE001062106210621062106210621062106291
:0110000022CD
:10100100D200901107E054FDF09011037402F02218
:10101100D203901107E054F7F09011037408F02205
:0110210022AC
:10102200901105E054FDF09011017402F090011945
:0510320014F0D20722BA
:10103700901105E054FBF09011017404F090011A2F
:061047007401F0D2072243
:10104D00901106E054FEF09011027401F090011B16
:04105D00F0D20722A4
:01106100226C
:01106200226B
:01106300226A
:011064002269
:10106500C0D075D010901107E054BFF090110374F3
:0810750040F012174BD0D0220D
:0300030002107D6B
:01107D003240
:03000B0002107E62
:10107E00C0E0C0F0C083C082C0D075D010121499E9
:0D108E00D202D0D0D082D083D0F0D0E0329A
:0300130002109B3D
:10109B00C0E0C0F0C083C082C0D075D010901110DA
:1010AB00E0789D666004E0F6802F901110E0C39409
:1010BB0060501FE024F0547F25E0242EF582E434A9
:1010CB0011F583E493FE740193CAEECAF9124B1423
:1010DB008003121062789D7600D0D0D082D083D05E
:0410EB00F0D0E0322F
:03001B000210EFE1
:0110EF0032CE
:030023000210F0D8
:0110F00032CD
:03002B000210F1CF
:0110F10032CC
:0710F200C2AF000000002264
:0510F900D2AAD2AF22D3
:10135B00125A125D125E12701273127413511352E1
:10136B001353135413551356135713581359135A26
:10137B00902907F09029307401F0E4902907F09040
:10138B001107E022E5355407FF7401C8EFC80822A6
:100200001210F27581D0E53B64AA701E901000E0D8
:10021000547FF00075F7010075F7010075F70100D4
:1002200075F7010000E4F53B803012143E1210F91E
:10023000741112137B4402F09011037402F09015B4
:1002400006E04401F0741212137B4408F09011038D
:100250007408F0901516E04401F01214A290050005
:100260007405F0E4900501F0900080F090008A742D
:1002700002F01211CE901107E04402F0E04408F0C1
:100280001210F900000000E52070E7E52170E37529
:0C0290008701000000000000000080D684
:1011CE0002124CE53745367003021259E4F535E547
:1011DE003720E00FE536C313F536E53713F537053F
:1011EE003580ECE535C39408500E12138F8002C380
:1011FE0033D8FCF45220800C12138F8002C333D8E4
:10120E00FCF45221AF35EF25E0245BF582E4341374
:10121E00F583E493FE740193CAEECAF9124B14904F
:10122E001500E030E104D2008014901510E030E19A
:10123E0004D2038009901D08E030E102D201AF21F3
:0C124E00EFAD20F536EDF5370211D1228E
:03125A000231530B
:01125D00226E
:10125E00123BEB900000E004F0E0B40504D205E48C
:02126E00F0226C
:031270000234B491
:011273002258
:10127400123CA5900001E004F0900008E004F0E0C6
:10128400C394194005E4F0123CBD900001E030E045
:1012940017123CAB900009E004F0E0C3941950032A
:1012A400021350E4F0023CBE900001E024FC601103
:1012B40024FE601224FE601324067023123CAC80CA
:1012C40023123CAD801E123CAE8019900004E00451
:1012D400F0E030E005123CAF800A123CBB8005E42C
:1012E400900001F0900001E07062900003E004F0CF
:1012F400E030E003023CBC900003E0124AC1132139
:1013040002132304132506132708132A0A132D0C8A
:1013140013300E13251013361200001339800A807F
:101324000B800C023CC2023CC5023CBF023CC00222
:101334003CC1023CC6E4900003F0900006E004F0D7
:0D134400E0B40A08123CC7E4900006F02255
:011351002279
:011352002278
:011353002277
:011354002276
:011355002275
:011356002274
:011357002273
:011358002272
:011359002271
:01135A002270
:1017E700901C25F0901C267419F0901C2722901C41
:1017F70023F0901C247403F022902907F0902930DD
:0918070022901C22F0901C232207
:10139B0090200D7403F09020127427F090200674A7
:1013AB0084F0902014740BF0E4902015F01217D2F7
:1013BB007F647E0012160C74071218007401F090F3
:1013CB0029E97420F090292C748BF0902962740217
:1013DB00F0E4902963F0902A00E04480F0902A0B0F
:0E13EB00E04410F074FEFFFE1217708F3C22DB
:1013F9007F20900000AC83C3EC94105005E4F0A367
:1014090080F3EFC394D05008C8EFC8E4F60F80F218
:0114190022B0
:10141A009029077407F090292A7402F0E4902A9818
:10142A00F0902A997497F0902A9C7440F0902A9E22
:04143A0074C3F02265
:10143E0012139B9000507401F0123D0B1215CDE467
:0A144E00900203F0121787021458F1
:10145800C28CC28DE4F58A758CFD758911D28CD247
:08146800A9C28EC28FC28E22C0
:10147000900700EEF0A3EFF0C2ABC28E00000000B8
:10148000900700E0F58DE0A3E0F58BC28FD28E22AD
:09149000758A06758CF1C28D22EB
:09149900E4F58A758CFDC28D2278
:1014A2009029077419F0E4902970F0902930F09097
:1014B2002976E04402F0901C107401F0902976E045
:1014C20054FEF0122BA2746475F000124AE7156DF7
:1014D200000A1548000D152700141513003214FFD9
:1014E200006414EC019000001591740312180814A2
:1014F200F0901C2404F01217E774C9803C901C225F
:101502007415F074251217F574151217E774B88064
:1015120028901C22742CF074531217F5742C121795
:10152200E774A08014747112180874DD1217F89011
:101532001C2574711217EA745BF0901C287401F078
:10154200E4901C33F022901C2274AFF0901C2374A0
:101552005A1217F8901C2574AF1217EA741DF090F6
:101562001C287401F0901C3304F022901C2274E4B5
:10157200F0901C2374C51217F8901C2574E41217FE
:10158200EA74E8F0E4901C28F0901C337402F02214
:10159200E4902990F09029927430F090299174FF90
:1015A200F09029947402F0E4902993F0902996F037
:1015B200902995F0902998F090299774FFF090293E
:0B15C2009A7402F090299974FFF02247
:1015CD0074041218007401F0902AAC743FF0902A44
:0C15DD005074FFF0902A00E04401F0225E
:1015E900902A137477F0902A1474C0F0E4902A15A5
:1015F900F0902A637450F0E4902A16F0902A6B74E4
:0316090050F0227C
:10160C00900790EEF0A3EFF0A2AF923BC2AF900721
:10161C0090E07002A3E06018E4FFE490200BF00F60
:10162C00EFB442F690079074FFF5F0124A8080DE1A
:05163C00A23B92AF2269
:06164100902C06EFF022E0
:10164700C2A9C2AB90111D7410F0901B0AF0901B39
:051657000674FFF02203
:10165C00E4901B0AF090111DF090008A7402F0D2F5
:02166C00A922B1
:10166E00900080E064056003E07007902923E04459
:10167E0001F09029077402F090293014F09029F0AF
:10168E00E04408F09029077407F0902926E0547F73
:10169E00F0E054BFF09029C1E0547FF0E054BFF069
:1016AE009028037480F0902801E4F09028007406CE
:1016BE00F09028037403F0902802E04486F0E04492
:1016CE0001F0902801E04401F0902804E04408F075
:0E16DE00901115E04480F09011147480F022F9
:1016EC00900080E064056003E07007902923E044DB
:1016FC0001F09029077401F0902930F09029F0E066
:10170C004408F09027037480F0902701E4F09027B0
:10171C00007403F0902703F0902702E04486F0E079
:10172C004401F0902701E04401F0902704E04408C4
:0F173C00F0901115E04440F09011147440F02229
:10174B00901F05E04401F0E4901F02F0901F03741A
:10175B007DF0E4901F04F09011037440F09011079A
:05176B00E04440F02203
:10177000900790EEF0A3EFF0900790E0FEA3E0F565
:07178000828E83E493FF2237
:101787007F007E22902280E0B4460F902281E0B451
:101797000508902282E064026028C3EF94C0EE94AB
:1017A70022500D8F828E83E4F00FBF00010E80EA76
:1017B7009022807446F09022817405F09022827402
:0317C70002F0220B
:0817CA00901107E04401F02238
:0717D2009010337403F022B4
:0E17D9009029077407F090292DE04401F022BA
:101A0900000B000D0102000B000E0408000B000F73
:101A19001020000B00104080000C00110102000C86
:101A290000120408000C00131020000C0014408060
:101A3900901802E04410F090180022900705E0FF8A
:101A4900A3E0FAA3E0F5828A83EFF08D828C8322EA
:0F1A5900E0FEA3E0FF7C007D1E124A2BED4C2225
:10181000900702EFF0A3EDF0CEEBCEEB5407FE7590
:10182000F006A42409F582E4341AF583E493FC74E9
:101830000193FDCBEECBEE75F006A4240BF582E40C
:10184000341AF583E493FB740193900706CBF0A35D
:10185000EBF0EE75F006A4240DF582E4341AF5835E
:10186000E493F9EE75F006A4240EF582E4341AF53B
:1018700083E493900708F0900703E0FE900702E0EE
:101880006E706A8D828C83E0FE900708E0FBEE5B51
:1018900070508D828C83E059700A121A44E049F02E
:1018A0007F0180627F01900706E0FAA3E0FBF582EA
:1018B0008A83E014F08B828A83E0704A8D828C8365
:1018C000C083C082E0FF900708E0FEEF4ED082D0D8
:1018D00083F08D828C83E0FFE9F4FEEF5EF07F02FF
:1018E00080248D828C83E049F07F038019121A4492
:1018F000C083C082E0FF900708E029F4FEEF5ED0CD
:0719000082D083F0E4FF2216
:10190700902C00E030E0047F0180027F0090070503
:10191700740AF07B01E4FD121810EF64026028EFEF
:10192700B4031D900015E475F001124A80D39000AE
:1019370016E09419900015E09400400B121A5922F2
:08194700E4900015F0A3F0226A
:10194F00902C00E030E1047F0180027F00900705BA
:10195F00740AF07B02E4FD121810EF64026028EFA6
:10196F00B4031D900017E475F001124A80D3900064
:10197F0018E09419900017E09400400B121A5922A6
:08198F00E4900017F0A3F02220
:10199700901802E054F7F07F01E47065EF124AC136
:1019A70019C30019D10119D90219E00319E704195C
:1019B700EE0519F50619FC0700001A08901802E051
:1019C70054EFF09018007401F022901802E054EFE1
:1019D7008029121A3974B3F022121A39748FF0223F
:1019E700121A397447F022121A397423F022121A84
:1019F700397411F022901802E04410F0E4901800B6
:021A0700F022CB
:10242300104510441043104810471046104B104AF3
:082433001049104E104D104C31
:0B1A6800000000000000000002FE0073
:10FE0000E4F539F53A9015017433F0901500E030BF
:10FE1000E1F9901500E030E3F2901504E0F539E5E2
:10FE20003AB4010B90103FE539F0E4F53A80DCE597
:10FE300039B4011C90103E740FF090103D74FFF027
:10FE400090103C14F0E490103BF090103FF080BB19
:10FE5000E539B4020890103C74FDF08005E539B432
:10FE60000305753A0180A4E539B4040A90103FE017
:10FE7000901501F08095E539B4050BE490103EF043
:10FE800090103DF08085E539B4FC05753BAA801ED5
:10FE9000E539B4FD0843D80143D80280FEE5396452
:10FEA000FE600302FE0B43D80143D80280FE02022B
:01FEB0000051
:101A730090103E740FF090103D74FFF0E490103B13
:101A8300F090103C74FEF090103F04F090103C7402
:101A9300FDF090103F7405F0E0900099F0E4901091
:071AA3003EF090103DF0221F
:101AAA0090103E740FF090103D74FFF0E490103BDC
:101ABA00F090103C74FEF090103F04F090103C74CB
:101ACA00FDF090103F7405F090103FE020E0F9908F
:101ADA00103C74FEF090103F04F090103C74FDF03E
:101AEA0090103F7406F090009DE0B4BF1790103C30
:101AFA0074FEF090103F04F090103C74FDF09010CA
:101B0A003F7450F090103C74FEF090103F04F09037
:101B1A00103C74FDF090103F7401F090009AE09030
:101B2A00103FF090103C74FEF090103F04F09010BB
:101B3A003C74FDF090103F7405F090103FE020E0F7
:0B1B4A00F9E490103EF090103DF022F6
:101B550090103E740FF090103D74FFF0E490103B30
:101B6500F090103C74FEF090103F04F090103C741F
:101B7500FDF090103F7405F090103FE020E0F990E3
:101B8500103C74FEF090103F04F090103C74FDF092
:101B950090103F749FF0E4900094F090103FE0FFA8
:101BA500900094E02490F582E43400F583EFF09002
:101BB5000094E004F0E0B404E2900090E090009D11
:101BC500F090103C74FEF090103F04F090103C74BF
:101BD500FDF090103F7405F090103FE020E0F9E42F
:091BE50090103EF090103DF0223A
:101BEE0090103E740FF090103D74FFF0E490103B97
:101BFE00F090103C74FEF090103F04F090103C7486
:101C0E00FDF090103F7405F090103FE020E0F99049
:101C1E00103C74FEF090103F04F090103C74FDF0F8
:101C2E0090103F74ABF0E4F0F0F0900094F0901050
:101C3E003FE0FF900094E02490F582E43400F583B9
:101C4E00EFF0900094E004F0E0B404E2900090E035
:101C5E0090009DF090103C74FEF090103F04F090B8
:101C6E00103C74FDF090103F7405F090103FE02092
:0C1C7E00E0F9E490103EF090103DF022E0
:101C8A0090103E740FF090103D74FFF0E490103BFA
:101C9A00F090103C74FEF090103F04F090103C74E9
:101CAA00FDF090103F7405F090103FE05403FFBF21
:101CBA0002F690103C74FEF090103F04F090103C35
:101CCA0074FDF0900098E090103FF0E4900094F0DA
:101CDA00900094E02495F582E43400F583E09010B6
:101CEA003FF0900094E004F0E0B403E490103C74F8
:101CFA00FEF090103F04F090103C74FDF090103FFD
:101D0A007405F090103FE020E0F9E490103EF09066
:041D1A00103DF02266
:101D1E0090103E740FF090103D74FFF0E490103B65
:101D2E00F090103C74FEF090103F04F090103C7454
:101D3E00FDF090103F7405F090103FE020E0F99018
:101D4E00103C74FEF090103F04F090103C74FDF0C7
:101D5E0090103F7406F090009DE0B4BF1790103CB9
:101D6E0074FEF090103F04F090103C74FDF0901053
:101D7E003F7450F090103C74FEF090103F04F090C1
:101D8E00103C74FDF090103F7405F090103FE0543D
:0F1D9E0003FFBF02F6E490103EF090103DF022DC
:101DAD0090103E740FF090103D74FFF0E490103BD6
:101DBD00F090103C74FEF090103F04F090103C74C5
:101DCD00FDF090103F7405F090103FE020E0F99089
:101DDD00103C74FEF090103F04F090103C74FDF038
:101DED0090103F7404F090103C74FEF090103F047E
:101DFD00F090103C74FDF090103F7405F090103F82
:0F1E0D00E0540370F8E490103EF090103DF02286
:101E1C0090103E740FF090103D74FFF0E490103B66
:101E2C00F090103C74FEF090103F04F090103C7455
:101E3C00FDF090103F7405F090103FE020E0F99019
:101E4C00103C74FEF090103F04F090103C74FDF0C8
:101E5C0090103F7402F0900095E090103FF09000CD
:101E6C0096E090103FF0900097E090103FF0E490D7
:101E7C000094F090009BE0FEA3E0F5828E83E0904E
:101E8C00103FF0900094E004F090009CE004F0907F
:101E9C000094E070DE90103C74FEF090103F04F063
:101EAC0090103C74FDF090103F7405F090103FE0E2
:0D1EBC0020E0F9E490103EF090103DF0227F
:101EC90090103E740FF090103D74FFF0E490103BB9
:101ED900F090103C74FEF090103F04F090103C74A8
:101EE900FDF090103F7405F090103FE020E0F9906C
:101EF900103C74FEF090103F04F090103C74FDF01B
:101F090090103F74ADF0900095E090103FF0900074
:101F190096E090103FF0900097E090103FF0E49029
:101F29000094F090009BE0FEA3E0F5828E83E090A0
:101F3900103FF0900094E004F090009CE004F090D1
:101F49000094E020E03B90103C74FEF090103F04B8
:101F5900F090103C74FDF090103F7405F090103F24
:101F6900E020E0F9900094E0601790103C74FEF0D6
:101F790090103F04F090103C74FDF090103F74AD48
:101F8900F0900094E0709C90103C74FEF090103F2B
:101F990004F090103C74FDF090103F7404F0E4904C
:0F1FA900200BF0F0F0F090103EF090103DF02281
:101FB80090103E740FF090103D74FFF0E490103BC9
:101FC800F090103C74FEF090103F04F090103C74B8
:101FD800FDF090103F7405F090103FE020E0F9907C
:101FE800103C74FEF090103F04F090103C74FDF02B
:101FF80090103F74AFF0900095E090103FF0900083
:1020080096E090103FF0900097E090103FF0E49039
:102018000094F090009BE0FEA3E0F5828E83E090B0
:10202800103FF0900094E004F090009CE004F090E1
:10203800103C74FEF090103F04F090103C74FDF0DA
:1020480090103F7405F090103FE020E0F990009464
:10205800E0601790103C74FEF090103F04F0901070
:102068003C74FDF090103F74AFF0900094E070A3C2
:1020780090103C74FEF090103F04F090103C74FDFA
:10208800F090103F7404F0E490200BF0F0F0F09022
:08209800103EF090103DF02213
:1020A00090009DE0B4BF1390009EE0B401067E1F37
:1020B0007FB8800A7E1E7FC980047E1E7F1C12218D
:0220C00072228A
:1020C20090103E740FF090103D74FFF0E490103BBE
:1020D200F090103C74FEF090103F04F090103C74AD
:1020E200FDF090103F7405F090103FE020E0F99071
:1020F200103C74FEF090103F04F090103C74FDF020
:1021020090103F740BF0900095E090103FF090001B
:1021120096E090103FF0900097E090103FF0E4F0CE
:10212200900094F090103FE0FF90009BE0FCA3E051
:10213200F5828C83EFF0900094E004F090009CE034
:1021420004F0900094E070DC90103C74FEF090106B
:102152003F04F090103C74FDF090103F7405F09035
:10216200103FE020E0F9E490103EF090103DF022A4
:10217200789976060876007870EEF608EFF6E4F5C0
:10218200317870E6FE08E6F5828E83E493FF789953
:10219200E6FC08E6F5828C83EFF006E6187001068D
:0F21A200787106E6187001060531E53170D32219
:1021B1001210F27EFE7F00122172901000E0448026
:0521C100F0121A682273
:1021C60090009AEFF01210F27E1A7FAA12217290F6
:1021D6001000E04480F0121A681210F9901000E026
:0421E600547FF02210
:1021EA001210F27E1A7F73122172901000E044805E
:0F21FA00F0121A681210F9901000E0547FF022D2
:102209001210F27E1B7F55122172901000E044805B
:0F221900F0121A681210F9901000E0547FF022B2
:102228001210F27E1B7FEE122172901000E04480A3
:0F223800F0121A681210F9901000E0547FF02293
:10224700900098EFF0900095EDF0A3EBF090070E5B
:10225700E0900097F01210F27E1C7F8A1221729094
:102267001000E04480F0121A681210F9901000E094
:04227700547FF0227E
:10227B0090009BEEF0A3EFF0900095EDF0A3EBF048
:10228B00900713E0900097F01210F21220A090101C
:10229B0000E04480F0121A681210F9901000E0541C
:0322AB007FF0229F
:1022AE0090009BEEF0A3EFF0900095EDF0A3EBF015
:1022BE00900718E0900097F01210F27E207FC21265
:1022CE002172901000E04480F0121A681210F990FA
:0722DE001000E0547FF02224
:1022E5001210F27E1D7F1E122172901000E04480B4
:0F22F500F0121A681210F9901000E0547FF022D6
:102304001210F27E1D7FAD122172901000E0448005
:0F231400F0121A681210F9901000E0547FF022B6
:10232300CEEBCECCEDCCCDEFCDCFECCFCBEFCB9076
:0C2333000718EEF07F007E081222AE2298
:10233F00900719EFF0A3EDF0A3EBF0E4FF1221C625
:10234F001222E5900719E0FDA3E0FBA3E090070E32
:10235F00F07F201222471222E5900719E0FDA3E03B
:10236F00FBA3E0900713F07F007E0812227B12235D
:02237F00042236
:1023810090071CECF0A3EDF0CBEFCBEB75F006A4BE
:102391002423F582E43424F583E493FE740193F558
:1023A100828E837480F090071CE0FFEB75F006A429
:1023B1002425F582E43424F583E493FC740193F538
:1023C100828C83EFF090071CE0A3E0FFEB75F00631
:1023D100A42427F582E43424F583E493FC74019367
:1023E100F5828C83EFF0EB75F006A42423F582E4EB
:1023F1003424F583E493FE740193F5828E83E4F033
:0124010022B8
:1024020090103EE0FEE4F090103DEFF090103CEDB5
:10241200F090103BEBF090103FE0FF90103EEEF09A
:012422002297
:102F18001C011C031C021C001C041C051C061105BA
:102F28001101021C071C121C141C131C111C151C5B
:102F3800161C1711051101041C181C2A1C2C1C2B0B
:102F48001C291C2D1C2E1C2F11061102011C301CC3
:102F5800001C101C0A2C076001001C111C211C1BE2
:102F68002C000201011C291C321C312C03C0010257
:102F78001C011C101C031C001C061C121C211C1408
:0E2F88001C111C171C2A1C321C2C1C291C2F6F
:102F960090071FE075F015A4241EF582E4342FF582
:102FA60083E493FE740193F5828E8322900753E0A7
:102FB600FF75F00AA4247EF582E4342FF583E493AA
:102FC600FC740193F5828C8322900752F0EF75F022
:102FD6000AA42478F582E4342F2290074CE0FF758A
:102FE600F00AA4247EF582E4342FF583E493FC747E
:102FF6000193FDF5828C83E022900753E0FF75F084
:103006000AA4247AF582E4342F22F583E493FA7431
:103016000193F5828A832290072AE075F015A4248D
:1030260018F582E4342F22900745E075F00AA424AF
:103036007EF582E4342F224401FFE0FE75F015A4EC
:10304600241AF582E4342F22E0FFEE75F015A4244D
:103056001CF582E4342F22900736E0FEA3E0F582C9
:103066008E83E0FF22E0FF75F00AA42480F582E457
:10307600342F22C28EC28FD2AB22EF75F015A42454
:1030860020F582E4342F22E0FF75F015A4241EF506
:1030960082E4342F22758DB2758B19C28FD28E229F
:1030A600900732E075F015A42424F582E4342F222B
:1030B6009029077419F09029307401F0902976E070
:1030C60022E04402F08D828C8374FE22F583E49321
:1030D600F8740193F582888322FEEF75F00AA42422
:1030E6007CF582E4342F22EE75F00BA4245BF58286
:1030F600E4342F2290071FE075F015A42422F582F0
:10310600E4342F22FDE0FAA3E02DF582E43AF583BC
:10311600EEF022E0FEA3E0FFF5828E83E022EE755C
:10312600F00BA42459F582E4342F22ED25E0FD901E
:103136000103E022EC75F00BA42460F582E4342F41
:0D3146002275F015A4242BF582E4342F220D
:0E243B00E4FF90071EE004F00FEFB4C8F52296
:10244900CEEFCEEE123021122FC2E04402F0E0545A
:10245900FDF09020097406F0EE75F00BA42457F5F1
:1024690082E4342F122FC274FEF0EE702A1230B6B5
:1024790054FD122538902C07E04420F09029CFE034
:102489004420F0902C07E04440F09029CFE04440EC
:10249900F012243B02250AEE6402706B1230B65426
:1024A900FE1225389029C3E04440F09029CBE0443E
:1024B90040F0902C03E04440F0902928E04440F09B
:1024C9009029C3E04480F09029CBE04480F0902C1F
:1024D90003E04480F0902928E04480F012243B90E6
:1024E90029077407F09029C3E054BFF0902928E028
:1024F90054BFF09029C3E0547FF0902928E0547F1D
:10250900F01230B64402F0123124122FC27402F0D4
:102519001230ED122FC27403F012243B1230ED1267
:102529002FC27407F0123124122FA57401F022F082
:0A25390012243B9029077407F022DA
:10254300900720EDF0A3EBF090071FEFF07D011251
:1025530029FAEF7007900729F002270B90072774D9
:10256300EEF0E4900729F0900103F0900720E020BB
:10257300E70302260F900725E06008900721E0FF9C
:102583001229AF900721E0FF90071FE0123042129B
:102593002FC2EFF0900725E06008900722E0FF12BA
:1025A30029AF900722E0FF90071FE0123051122F4E
:1025B300C2EFF0900720E0547FF0900725E0600918
:1025C3009007231230601229AF900723123119FDAF
:1025D30090071FE0123081123010EDF0900720E0D9
:1025E300640C7042900725E0600A8F828E83A3E01B
:1025F300FF1229AF900723E0FEA3E0F5828E83A3A9
:10260300E0FF1230FA122FC2EFF0801A900721E098
:1026130090071F12303D122FC2EFF09007221230A5
:102623004E122FC2EFF090071F12308D122FC2747B
:10263300FEF0900725E0601C900103E0FE90071F69
:10264300E0FD123147123010EEF0900720E044C055
:10265300FEED8008900720E04440FEEF1230211287
:102663002FC2EEF0C28EC2AB0000000012309B20DE
:102673008F10122F96E0900728F0E0547E60F0123E
:102683003079308F0D12307990071FE0FF12244903
:102693008016900728E0FF547C6015EF54186008FB
:1026A30090071FE0FF12244990072774EEF080057E
:1026B300E4900727F0900727E0B4EE07E49007299A
:1026C300F0803F90071FE0FF123042122FC2E0302C
:1026D300E02A123080122FA5E0FF900723E0FCA32D
:1026E300E0FDF5828C83EFF0900720E0B40C0D122F
:1026F30030FA122FA5E08D828C83A3F09007297402
:0E27030001F0122F9674FEF0900729E0FF22DD
:1027110090072BEDF0A3EBF090072AEFF07D01126B
:1027210029FAEF7007900730F0022832E490073061
:10273100F0A3F090072CE090072A12303D122FC22F
:10274100EFF090072D12304E122FC2EFF0EE122F44
:102751009A74FEF090072BE04440FF12301D122FB7
:10276100C2EFF0C28EC2AB0000000012309B308F6E
:102771000302280990072A12308D122FC2E0FE545D
:10278100FC60EBEE547C6013EE5418600312244994
:10279100123079E4900730F002280990072AE0FF0F
:1027A1001230AA122FC2E0FE90072EE0FCA3E0F542
:1027B100828C83EEF0900731E07010123080122F7E
:1027C100A5E0900731F0E0FF124937900731E0149E
:1027D100F090072EE475F001124A80900731E0FF76
:1027E100B4010A12301D122FC2E04420F090072AD2
:1027F100E012308F122FC274FEF0EF600302276FD8
:1028010012307990073004F0308F10123079900730
:102811002AE0FF122449E4900730F090072AE0FFF4
:10282100123021122FC2E054DFF0EF122F9A74FE02
:07283100F0900730E0FF22E8
:10283800900733EDF0A3EBF0900732EFF07D011233
:1028480029FAEF700790073AF00229A9E490073AAD
:10285800F0A3F0900739E06023E4900103F09007BB
:1028680034E0FF1229AF900735E0FF1229AF900737
:1028780038E0FF1229AF12305D1229AF900733E01C
:10288800547FF0A3E0FF900732123040122FC2EFBE
:10289800F090073512304E122FC2EFF0900738E053
:1028A800FFEE123081122FC2EFF090073BEFF012CB
:1028B800305D900732E0FE1230AA122FC2EFF0EE20
:1028C800122F9A74FEF0900739E09007336005E004
:1028D80044C08003E04440FF900732123020122F9A
:1028E800C2EFF0C28EC2AB0000000012309B308FE6
:1028F8000302298D90073212308D122FC2E0FE5448
:10290800FC60EBEE547C6013EE541860031224490B
:10291800123079E490073AF002298D90073BE014D1
:10292800F0900736E475F001124A8090073BE060AA
:102938004B900739E0602E900736123119FD12309E
:10294800A6123010EDF08F828E83E0FF1229AF902F
:10295800073BE064017019900103E0FF900732E043
:10296800123147800612305D1230A6122FC2EFF0E6
:10297800900732122F9974FEF00228F612307990DF
:10298800073A7401F0308F10123079900732E0FF67
:10299800122449E490073AF0900732122F9974FEF6
:0729A800F090073AE0FF2266
:1029AF00900103E06FF0E0FD20E70CFF25E0FDE074
:1029BF00CFEDCF6DF080091231316409F0E06DF089
:1029CF00ED20E7061231326DF0221231316407F03B
:0729DF00E0CEEDCE6EF02208
:1029E600EF1230EE122FA5E05403FEBE03037F0064
:0429F600227F012219
:1029FA0090073CEDF0CCEFCC7D01CFECCF1229E66D
:102A0A00EF6401701DFD12313A122FA5E0FF04F0A8
:102A1A00900104E0FEEFD39E4012CFECCF1224497E
:102A2A00800A12313A122FA5E4F07D01CFEDCF22B0
:102A3A0090073DEDF0A3EBF0CAEFCA7D011229FA27
:102A4A00EF7004F9022ADC7DEEE4F990073DE0FF1D
:102A5A00EA1230421230D2EFF090073EE0FFEA125B
:102A6A0030511230D2EFF0EA122F9A74FEF0EA12C5
:102A7A003021122FA57444F0C28EC2AB00000000B0
:102A8A0012309B208F11EA122F9AE090073FF0E054
:102A9A00547E60EF123079308F0D123079CFEACF41
:102AAA001224497DEE801A90073FE0FF547C600FA4
:102ABA00EF54186006CFEACF1224497DEE8002E473
:102ACA00FDEDB4EE04E4F980027901EA122F9A745A
:062ADA00FEF0CFE9CF225F
:102AE000900740EDF0A3EAF0A3EBF0C9EFC97D0138
:102AF0001229FAEF7007900743F0022B9C7DEEE459
:102B0000900743F0900740E04401FFE91230421281
:102B10003010EFF0E9122F9A74FEF0E91230211212
:102B20002FA57444F0C28EC2AB0000000012309B8F
:102B3000208F11E9122F9AE0900744F0E0547E6054
:102B4000EF123079308F0D123079CFE9CF1224494E
:102B50007DEE801A900744E0FF547C600FEF54181C
:102B60006006CFE9CF1224497DEE8002E4FDEDB48A
:102B7000EE07E4900743F0801CE9123081122FA584
:102B8000E0FF900741E0FCA3E0F5828C83EFF0903A
:102B900007437401F0E9122F9A74FEF0900743E0A6
:022BA000FF2212
:072BA2009001047414F022FD
:102BA900900745EFF0900747EBF090074B7401F061
:102BB900E490074AF090074512300212301074036E
:102BC900F0ED44011230DF122FC2EEF090074512EA
:102BD9002FB5E044FEF0900747E0B4010B122FD364
:102BE900122FA5747CF0800D900745E0122FD412A6
:102BF9002FA5745CF07F197EB212147090074512EC
:102C09002FE354FE7013308FF390074B122FD2121B
:102C19002FA51230C7F0022CB0900747E014F090AE
:102C29000745122FB5E0547C602A122FD3122FC208
:102C3900E04402F000E054FDF0122FD3122FA5E07A
:102C49004402F012302D122FA574FEF0E490074BC8
:102C5900F0022CB090074512306B122FC2E0FE90A3
:102C6900074AE090074812310A90074AE004F090B9
:102C79000747E0FEB4010C122FD3122FC2E0442003
:102C8900F08011EE700E900745E0123004122FA566
:102C9900E054FDF012302D122FA5E04480F090078A
:0D2CA90047E06003022BFE90074BE0FF2286
:102CB60090074CEFF090074EEBF09007527401F03E
:102CC600E4900751F090074C123002123010740352
:102CD600F0EF123031F583E493FE74019312311D47
:102CE60044FEF0ED54FEFD90074CE0F91230E1127F
:102CF6003010EDF08F828E83E044FEF090074F1285
:102D06003060E912306D122FC2EFF0E9122FD412A3
:102D16002FA5745CF07F197EB2121470122FE05446
:102D2600FE700F308FF6122FCF122FA51230C7026A
:102D36002DA090074EE014F0122FE0547C600DE4B5
:102D4600122FCF122FA51230C7F0803790074EE012
:102D5600FF602D900751E004F0E0FE90074FE0FC85
:102D6600A3E02EF582E43CF583E0FE90074CE0FDFF
:102D760012306D123010EEF0ED122FB7E04480F0F5
:102D8600EF709290074C123002122FC2E054FDF001
:102D9600EF123031122FA5E04480F0900752E02464
:022DA600FF220A
:102DA800900753EFF090075A7401F0E4900759F038
:102DB800122FFF1230D27403F0ED54FE1230DF12DE
:102DC8002FC2EEF0122FB2E044FEF0EF12306D1277
:102DD8002FC2EBF0900753E0122FD4122FA5745C8A
:102DE800F07F197EB2121470900753122FE354FE2D
:102DF8007006308FF3022E5E122FB2E0547C6026EC
:102E0800122FD3122FC2E04402F000E054FDF0E488
:102E180090075AF0EF123004122FA5E054FDF090FD
:102E28000753E0022F08122FFF122FF0440CF0EF87
:102E3800123031122FA5E04480F08D828C83E0544B
:102E4800FBF07F197EB2121470900753122FE354CF
:102E5800FE7012308FF390075A122FD2122FA5123C
:102E680030C7022F11900756E014F0122FB2E05429
:102E78007C602C122FD3122FC2E04402F000E054E1
:102E8800FDF0E490075A122FD2122FA5E04402F069
:102E9800900753123030122FA574FEF0022EFD90C9
:102EA800075312306B122FC2E0FE900759E09007CB
:102EB8005712310A900759E004F0900756E0FEB423
:102EC800010C122FD3122FC2E04420F08011EE70B3
:102ED8000E900753E0123004122FA5E054FDF09035
:102EE8000753123030122FA5E04480F0900756E0C7
:102EF8006003022E4A122FFF122FC2E054FDF0EF9A
:102F0800123031122FA5E04480F090075AE0FF22DA
:10342B003161317C319B31B131BB3DC33DC43DC5B5
:10343B003DC63DCE3DD53DE33DE43DE53DE63DE7B7
:10344B003E963E9C3EA23EA83EAE3EB43EBA3EC029
:10345B0033BF3EC63ED63EE63EF63F063F163F2600
:10346B003E5B31683183318D3E5C3E5D3E5E3E5F3F
:10347B000000000000000000000000000000000041
:10348B0090002BE02420F582E43400F58322900099
:10349B003BE02430F582E43400F58322F583E4939A
:0934AB00FE740193CAEECAF92275
:0E315300901500E030E1061233B21233D222A2
:073161001231FD756101222E
:10316800AF63123DB78F64901501E564F01231FD2D
:04317800E4F56122F7
:07317C001231FD7561022212
:0A3183008563641231FD75610322BB
:0E318D001231FDAD63AF64123DBDE4F5612269
:10319B00901500E04410F09015017490F07838E62B
:0631AB004480F60231FD34
:0A31B100901500E054EFF00231FD2C
:1031BB0012324190002EEFF0E0901501F01231FD2C
:1031CB0090002EE0D394004019E0FF90004FE054A4
:1031DB000F2440F582E43400F583EFF090004FE0CC
:1031EB0004F0E490002FF090002DF07838E654BFF7
:0231FB00F622BA
:1031FD007838E6C4131313540130E00C902C07E01B
:09320D0054DFF000E04420F0223F
:0D321600902C07E054DFF000E04420F0228F
:10322300902C06E054FDF07F19123237902C06E003
:043233004402F0223F
:0A323700EFD3940040031F80F7223C
:1032410012348BE090002FF0E07009901500E054EB
:10325100DFF0801312348BE4F090002BE004F0E0F7
:0D326100D394094002E4F090002FE0FF221A
:10326E007838E620E0037F002290002A12348EE0A8
:10327E00700E90002A12348EEFF090002AE004F0C7
:10328E0090002AE0D394094002E4F0901500E04447
:10329E0020F07838E6FFC41313540330E0037F00A8
:0D32AE00227838E64440F61231FD7F002200
:1032BB00123499E090003FF0E0700D901500E0544F
:1032CB00BFF090002FE0FF22123499E4F090003B06
:1032DB00E004F0E0D394094002E4F090003FE0FFFB
:0132EB0022C0
:1032EC00EF7002FF2290003A12349CE0700E9000B6
:1032FC003A12349CEFF090003AE004F090003AE07F
:0A330C00D394094002E4F07F002290
:10331600E4FF74302F12349FE4F074202F1234919E
:10332600E4F00FEFB409EBE490002AF090003AF0D5
:0933360090002BF090003BF02206
:10333F0090002DE004F0E0D39428402FE4F01234F5
:10334F008BE090002FF0E0D39400401F7838E630E8
:10335F00E019E6FFC4131313540130E00E9015006B
:0C336F00E04420F0E054BFF012321622BF
:10337B00900790E4F0A374FAF0901500E020E1259B
:10338B0090079074FFF5F0124A80208F0A900790F7
:10339B00E07002A3E070E2901500E054EFF0123100
:0733AB00FDC28FC322D322F3
:0D33B200C2AB758DFA758B01D28EC28F22D1
:1033BF00E560540F25E0242BF582E434341234A752
:0333CF00024B149A
:1033D200901500E030E319901504E0F560E4F56122
:1033E200E560C4540F25E0244BF582E434348017A1
:1033F200901504E0F563E5616015E561540725E089
:10340200246BF582E434341234A7124B14800BE59A
:103412006CC394FF5004056C80F5901500E030E415
:093422000512337B40AAD2AB2253
:1035B60034C234D734ED3501407B407C407D407EBB
:1035C600407F4080408140824083408440854086E1
:1035D60041334139413F4145414B41514157415D9D
:1035E600354A416341734183419341A341B341C38A
:1035F60040F834C634DB34E240F940FA40FB40FC84
:1036060000000000000000000000000000000000B4
:0D361600F583E493FE740193CAEECAF92215
:0E34B400901510E030E10612353D12355D2214
:0434C2007567012207
:1034C600AF6912406F8F6A901511E56AF0E4F567EF
:0134D60022D3
:0434D70075670222F1
:0734DB0085696A7567032291
:0B34E200AD69AF6A124075E4F5672287
:1034ED00901510E04410F09015117490F07838E6B6
:0434FD004480F622EF
:08350100901510E054EFF022D8
:10350900900790E4F0A374FAF0901510E020E122FE
:1035190090079074FFF5F0124A80208F0A90079067
:10352900E07002A3E070E2901510E054EFF0C28F52
:04353900C322D322B4
:0D353D00C2AB758DFA758B01D28EC28F2244
:10354A00E566540F25E024B6F582E43435123616C2
:03355A00024B140D
:10355D00901510E030E319901514E0F566E4F56769
:10356D00E566C4540F25E024D6F582E43435801782
:10357D00901514E0F569E5676015E567540725E0DA
:10358D0024F6F582E43435123616124B14800BE511
:10359D006DC394FF5004056D80F5901510E030E477
:0935AD000512350940AAD2AB2237
:10397D00F0902A8EE04408F0E4F0902A8822A3F01B
:10398D00E4A3F0A3F0A37405F0A3F0E4FB7F3022D1
:10399D00902A8E7401F0902A88E0227C007D55E4F7
:1039AD00900760F022CDEFCD900050E0902A0A22D2
:1039BD003E900773F0A3EFF09007732274FFF09021
:1039CD002A8922E0902A8BF0EBC3940222902A8858
:0439DD00E0546C2224
:103623001239A8741E12398B123662EF602690008D
:1036330056E0540F90005FF0900057E0541F900045
:1036430060F0900058E0540F900061F090075B74B5
:0F36530001F08005E490075BF090075BE0FF2239
:1036620090075DECF0A3EDF01239B2B40105746578
:10367200F080037464F012397E1239C9EDF09007BC
:1036820065E0902A8AF09007641239D05009EB2441
:10369200A1902A8CF08006902A8C74A1F090076089
:1036A200E0FFC394025009EF2402902A8DF08006B5
:1036B200902A8D7402F0900761E0902A8DF09007B5
:1036C20062E0902A8DF0900763E0902A8DF07F01EE
:1036D2007E00121470902A88E030E003308FF630BA
:1036E2008F037F002212399D30E6037F00227F0183
:1036F2007E00121470902A88E030E103D38001C367
:103702004003308FF0308F037F00221239DA6003DA
:103712007F0022E4FF900764E0FEEFC39E50189002
:103722002A8FE0FE90075DE0FCA3E02FF582E43CE7
:10373200F583EEF00F80DE12397E74FEF090075DA5
:10374200E0FEA3E0F5828E83E0B440089007667441
:0F37520001F08005E4900766F0900766E0FF2223
:10376100CAEFCA1239B5B401057465F080037464F7
:10377100F012397E1239C9EAF0900770E0902A8A76
:10378100F090076F1239D05009EB24A5902A8CF0E4
:103791008006902A8C74A1F090076BE0FFC394021D
:1037A1005009EF2402902A8DF08006902A8D740230
:1037B100F090076CE0902A8DF090076DE0902A8DD3
:1037C100F090076EE0902A8DF0E4900771F0900779
:1037D10070E024FAFFA3E0FEC39F5015ED2EF582A1
:1037E100E43CF583E0902A8DF0900771E004F080CD
:1037F100DD7F017E00121470902A88E030E00330F2
:103801008FF6308F037F002212399D30E6037F004F
:10381100227F017E00121470902A88E030E103D3E8
:103821008001C34003308FF0308F037F00221239B3
:10383100DA60037F0022902A8FE090077112397DB0
:1038410074FEF0900771E0B44006A37401F08005A6
:0B385100E4900772F0900772E0FF2285
:10385C001239B2B401057465F080037464F0123946
:10386C007E1239C9EDF0902A8A7401F0902A8B04EB
:10387C00F0902A8C14F0E4902A8DF07F01FE121443
:10388C0070902A88E030E003308FF6308F037F0091
:10389C002212399D30E6037F00227F017E00121434
:1038AC0070902A88E030E103D38001C34003308F4D
:1038BC00F0308F037F00221239DA60037F002290F0
:1038CC002A8FE0900051F0902A8FE090005212392C
:0738DC007D74FEF07F012264
:1038E3007F3012385CEF6401704B900052E0FE9021
:1038F3000051E07C002400FFEC1239BDE0FEA3E0A0
:10390300F4FFEEF4FEEF2401FFE41239BDE0FEA361
:10391300E07806CEC313CE13D8F9FF900054E070BD
:10392300037464F0900054E0FEEFD39E5007E0C3AD
:063933009F900062F022EB
:103939001239A8741012398B123662EF6011900097
:1039490057E0900053F0900058E0900054F0229016
:0C39590000547464F09000537410F022CD
:103965001239A8A3740A12398C123662EF600890D6
:083975000057E0900063F0220E
:103A9D000000000001020304041278720102030405
:103AAD00041279710102030404127A7001020304F5
:103ABD0004127B6F0102030404127C6E01020304E5
:103ACD0004127D6D0102030404127E6C01020304D5
:103ADD0004127F6B010203040412806A01020304C5
:103AED00041281690102030404120102010203049C
:103AFD000412010201020304041201020102030473
:103B0D000412010201020304041201020102030462
:103B1D000412010201020304041201020102030452
:103B2D000412010201020304041201020102030442
:083B3D0004120102010203045D
:1039E100900775EFF07F067EF1121470902805E0C4
:0F39F10020E503308FF6900775E0902800F02254
:103A0000900776EFF07F067EF1121470902705E0A4
:0F3A100020E503308FF6900776E0902700F02234
:103A1F00900777EFF0E4A3F0900778E0FFC39408E6
:103A2F005029900777E075F008A4249DF582E434BF
:103A3F003AF583E5822FF582E43583F583E493FF2E
:0C3A4F001239E1900778E004F080CD22ED
:103A5B00E490006EF090006EE02478F582E4340080
:0F3A6B00F583E4F090006EE004F0E0B404E7228D
:103A7A00E490006FF090006FE02470F582E4340067
:0F3A8A00F583E4F090006FE004F0E0B404E7226D
:023A9900002209
:023A9B00002207
:10004000A5A5A5A5A5A5A5B587305A5AAAAA55550F
:10005000495438373358202D495445205465636836
:070060002E20496E632E0003
:02FEFE001206EA
:083CF300EFF090077B024AA9E3
:103B45007DFF7C068D828C83E0F9E004F0E0B4FF14
:103B550027E4F09007797406F0A3E4F0FE90077966
:103B6500E0FAA3E0F5828A83E4F090077975F00125
:103B7500124A800EEEB4FFE5CEE9CEE92400FDE45D
:093B850034068D82F583EFF02275
:103B8E00CDEFCDCCEECCECFFEDFB123B45CFEBCF2A
:033B9E00023B45A2
:103BA10090077B124AB5123CF57818124A96CAEF73
:103BB100CA123CF57810124A9690077F123CF378AE
:103BC10008124A96900780123CF3E4CBEFCBCFEA80
:103BD100CF123B4590077FE0FF123B45900780E005
:0A3BE100FF123B45CFEBCF023B453E
:103BEB009029077407F0902927E04440F09029C2F0
:103BFB00E04440F09029CAE04440F09029BBE044F7
:103C0B0020F0902925E04410F09029C8E04410F0F2
:103C1B009029C0E04410F0902927E04480F09029CF
:103C2B00CAE04480F09029C2E04480F0902926E05D
:103C3B004410F09029C9E04410F09029C1E04410E1
:103C4B00F0E4902907F0902C04E030E303D38001DB
:103C5B00C3401D902C02E04440F0902C00E0441037
:103C6B00F0902C02E04480F0902C01E04410F02204
:103C7B00902C03E030E503D38001C3401C902C0251
:103C8B00E054BFF0902C00E054EFF0902C02E05485
:0A3C9B007FF0902C01E054EFF022BE
:063CA5001246BE02333F8F
:013CAB0022F6
:013CAC0022F5
:013CAD0022F4
:013CAE0022F3
:0C3CAF00900080E064016003124A1A22B9
:013CBB0022E6
:013CBC0022E5
:013CBD0022E4
:013CBE0022E3
:013CBF0022E2
:013CC00022E1
:013CC10022E0
:033CC20002474571
:013CC50022DC
:013CC60022DB
:013CC70022DA
:013CC80022D9
:013CC90022D8
:103CCA00900781EEF0A3EFF0D3900782E094009082
:103CDA000781E094004011E490200BF09007817472
:093CEA00FFF5F0124A8080E0228F
:083CFB00902C02E04408F022C5
:083D0300902C02E054F7F022BD
:103D0B009029077407F09029307401F09029CE7434
:103D1B00FFF0E4902C06F0902907F0902927E0445F
:103D2B0008F09029CAE04408F09029C2E04408F05A
:103D3B009029077407F0902927E04440F09029C29E
:103D4B00E04440F09029CAE04440F0902C02E0445B
:103D5B0040F0902925E04410F09029C8E04410F081
:103D6B009029C0E04410F0902C00E04410F0902912
:103D7B0027E04480F09029CAE04480F09029C2E00B
:103D8B004480F0902C02E04480F0902926E044100F
:103D9B00F09029C9E04410F09029C1E04410F09054
:0C3DAB002C01E04410F0E4902907F02205
:103F36003DE83DE93DEA3DEB3DEC3DED3DEE3DEF37
:103F46003DF03DF13DF23DF33DF43DF53DF63DF7E7
:103F56003DF83DF93DFA3DFB3DFC3DFD3DFE3DFF97
:103F66003E003E013E023E033E043E053E063E073F
:103F76003E083E093E0A3E0B3E0C3E0D3E0E3E0FEF
:103F86003E103E113E123E133E143E153E163E179F
:103F96003E183E193E1A3E1B3E1C3E1D3E1E3E1F4F
:103FA6003E203E213E223E233E243E253E263E27FF
:103FB6003E283E293E2A3E2B3E2C3E2D3E2E3E2FAF
:103FC6003E303E313E323E333E343E373E383E3959
:103FD6003E3A3E3B3E3C3E3D3E3E3E3F3E403E41FF
:103FE6003E423E433E443E453E463E473E483E49AF
:103FF6003E4A3E4B3E4C3E4D3E4E3E4F3E503E515F
:104006003E523E533E543E553E563E573E583E590E
:104016003E5A3E5A3E5A3E5A3E5A3E5A3E5A3E5ADA
:104026003E5A3E5A3E5A3E5A3E5A3E5A3E5A3E5ACA
:10403600E560540F25E02416F582E43440F583E468
:1040460093FE740193CAEECAF922E560540F25E087
:104056002274057899F608EFF6F58275830522E055
:094066004410F0E4901803F0226C
:063DB700124057E0FF225C
:063DBD00124057EDF02258
:013DC30022DD
:013DC40022DC
:013DC50022DB
:083DC600902C02E04440F022C1
:073DCE00902C001240652259
:0E3DD500902C02E04480F0902C0112406522F8
:013DE30022BD
:013DE40022BC
:013DE50022BB
:013DE60022BA
:013DE70022B9
:013DE80022B8
:013DE90022B7
:013DEA0022B6
:013DEB0022B5
:013DEC0022B4
:013DED0022B3
:013DEE0022B2
:013DEF0022B1
:013DF00022B0
:013DF10022AF
:013DF20022AE
:013DF30022AD
:013DF40022AC
:013DF50022AB
:013DF60022AA
:013DF70022A9
:013DF80022A8
:013DF90022A7
:013DFA0022A6
:013DFB0022A5
:013DFC0022A4
:013DFD0022A3
:013DFE0022A2
:013DFF0022A1
:013E0000229F
:013E0100229E
:013E0200229D
:013E0300229C
:013E0400229B
:013E0500229A
:013E06002299
:013E07002298
:013E08002297
:013E09002296
:013E0A002295
:013E0B002294
:013E0C002293
:013E0D002292
:013E0E002291
:013E0F002290
:013E1000228F
:013E1100228E
:013E1200228D
:013E1300228C
:013E1400228B
:013E1500228A
:013E16002289
:013E17002288
:013E18002287
:013E19002286
:013E1A002285
:013E1B002284
:013E1C002283
:013E1D002282
:013E1E002281
:013E1F002280
:013E2000227F
:013E2100227E
:013E2200227D
:013E2300227C
:013E2400227B
:013E2500227A
:013E26002279
:013E27002278
:013E28002277
:013E29002276
:013E2A002275
:013E2B002274
:013E2C002273
:013E2D002272
:013E2E002271
:013E2F002270
:013E3000226F
:013E3100226E
:013E3200226D
:013E3300226C
:033E34000221B1B7
:013E37002268
:013E38002267
:013E39002266
:013E3A002265
:013E3B002264
:013E3C002263
:013E3D002262
:013E3E002261
:013E3F002260
:013E4000225F
:013E4100225E
:013E4200225D
:013E4300225C
:013E4400225B
:013E4500225A
:013E46002259
:013E47002258
:013E48002257
:013E49002256
:013E4A002255
:013E4B002254
:013E4C002253
:013E4D002252
:013E4E002251
:013E4F002250
:013E5000224F
:013E5100224E
:013E5200224D
:013E5300224C
:013E5400224B
:013E5500224A
:013E56002249
:013E57002248
:013E58002247
:013E59002246
:013E5A002245
:013E5B002244
:013E5C002243
:013E5D002242
:013E5E002241
:013E5F002240
:103E60009007837402F0A3E4F0901500E030E110B5
:103E7000E030E3037F0022901504E0F5637F012228
:103E800090078374FFF5F0124A80900783E0700278
:063E9000A3E070D5FF2243
:063E9600124036024B143D
:063E9C00124036024B1437
:063EA200124036024B1431
:063EA800124036024B142B
:063EAE00124036024B1425
:063EB400124036024B141F
:063EBA00124036024B1419
:063EC000124036024B1413
:103EC6001240502436F582E4343F124043024B142C
:103ED6001240502456F582E4343F124043024B14FC
:103EE6001240502476F582E4343F124043024B14CC
:103EF6001240502496F582E4343F124043024B149C
:103F060012405024B6F582E4343F124043024B146B
:103F160012405024D6F582E4343F124043024B143B
:103F260012405024F6F582E4343F124043024B140B
:1041D300408740884089408A408B408C408D408E88
:1041E300408F409040914092409340944095409638
:1041F300409740984099409A409B409C409D409EE8
:10420300409F40A040A140A240A340A440A540A697
:1042130040A740A840A940AA40AB40AC40AD40AE47
:1042230040AF40B040B140B240B340B440B540B6F7
:1042330040B740B840B940BA40BB40BC40BD40BEA7
:1042430040BF40C040C140C240C340C440C540C657
:1042530040C740C840C940CA40CB40CC40CD40CE07
:1042630040CF40D040D140D240D340D440D540D6B7
:1042730040D740D840D940DA40DB40DC40DD40DE67
:1042830040DF40E040E140E240E340E440E540E617
:1042930040E740E840E940EA40EB40EC40ED40EEC7
:1042A30040EF40F040F140F240F340F440F540F677
:1042B30040F740F740F740F740F740F740F740F743
:1042C30040F740F740F740F740F740F740F740F733
:1042D300E566540F25E024B3F582E43442F583E424
:1042E30093FE740193CAEECAF922E566540F25E0E2
:0F42F3002274057899F608EFF6F5827583052297
:06406F001242F4E0FF2202
:064075001242F4EDF022FE
:01407B002222
:01407C002221
:01407D002220
:01407E00221F
:01407F00221E
:01408000221D
:01408100221C
:01408200221B
:01408300221A
:014084002219
:014085002218
:014086002217
:014087002216
:014088002215
:014089002214
:01408A002213
:01408B002212
:01408C002211
:01408D002210
:01408E00220F
:01408F00220E
:01409000220D
:01409100220C
:01409200220B
:01409300220A
:014094002209
:014095002208
:014096002207
:014097002206
:014098002205
:014099002204
:01409A002203
:01409B002202
:01409C002201
:01409D002200
:01409E0022FF
:01409F0022FE
:0140A00022FD
:0140A10022FC
:0140A20022FB
:0140A30022FA
:0140A40022F9
:0140A50022F8
:0140A60022F7
:0140A70022F6
:0140A80022F5
:0140A90022F4
:0140AA0022F3
:0140AB0022F2
:0140AC0022F1
:0140AD0022F0
:0140AE0022EF
:0140AF0022EE
:0140B00022ED
:0140B10022EC
:0140B20022EB
:0140B30022EA
:0140B40022E9
:0140B50022E8
:0140B60022E7
:0140B70022E6
:0140B80022E5
:0140B90022E4
:0140BA0022E3
:0140BB0022E2
:0140BC0022E1
:0140BD0022E0
:0140BE0022DF
:0140BF0022DE
:0140C00022DD
:0140C10022DC
:0140C20022DB
:0140C30022DA
:0140C40022D9
:0140C50022D8
:0140C60022D7
:0140C70022D6
:0140C80022D5
:0140C90022D4
:0140CA0022D3
:0140CB0022D2
:0140CC0022D1
:0140CD0022D0
:0140CE0022CF
:0140CF0022CE
:0140D00022CD
:0140D10022CC
:0140D20022CB
:0140D30022CA
:0140D40022C9
:0140D50022C8
:0140D60022C7
:0140D70022C6
:0140D80022C5
:0140D90022C4
:0140DA0022C3
:0140DB0022C2
:0140DC0022C1
:0140DD0022C0
:0140DE0022BF
:0140DF0022BE
:0140E00022BD
:0140E10022BC
:0140E20022BB
:0140E30022BA
:0140E40022B9
:0140E50022B8
:0140E60022B7
:0140E70022B6
:0140E80022B5
:0140E90022B4
:0140EA0022B3
:0140EB0022B2
:0140EC0022B1
:0140ED0022B0
:0140EE0022AF
:0140EF0022AE
:0140F00022AD
:0140F10022AC
:0140F20022AB
:0140F30022AA
:0140F40022A9
:0140F50022A8
:0140F60022A7
:0140F70022A6
:0140F80022A5
:0140F90022A4
:0140FA0022A3
:0140FB0022A2
:0140FC0022A1
:1040FD009007857402F0A3E4F0901510E030E11004
:10410D00E030E3037F0022901514E0F5697F012272
:10411D0090078574FFF5F0124A80900785E07002D4
:06412D00A3E070D5FF22A3
:064133001242D3024B14FE
:064139001242D3024B14F8
:06413F001242D3024B14F2
:064145001242D3024B14EC
:06414B001242D3024B14E6
:064151001242D3024B14E0
:064157001242D3024B14DA
:06415D001242D3024B14D4
:104163001242ED24D3F582E434411242E0024B14AF
:104173001242ED24F3F582E434411242E0024B147F
:104183001242ED2413F582E434421242E0024B144E
:104193001242ED2433F582E434421242E0024B141E
:1041A3001242ED2453F582E434421242E0024B14EE
:1041B3001242ED2473F582E434421242E0024B14BE
:1041C3001242ED2493F582E434421242E0024B148E
:0C479100FFFF5555000000000000000074
:10479D0074FF75F0FB124A80C3900083E09404907F
:1047AD000082E0940022E4900081F0900082F0A35A
:1047BD00F090008022900082E4F0A322740A90070A
:1047CD0005F0E4FBFD22900088E475F001124A80AB
:1047DD00D3900089E022900080F0E47838F6E6224C
:1047ED00900081E004F0229007057432F0E4FBFDA7
:0147FD002299
:10430200900080E0124AC1432B00432E01438602F3
:10431200434303435404435405436C064371074328
:104322007608437B09000043810243B41243FC1226
:104332004432124471900080E0B40103124485803B
:104342003B1243FC12449C900080E06403703502EF
:1043520044711243B4902C04E030E3047F018002E4
:104362007F00EF6401701D0243E51244FF800D12CD
:104372004577800812465180031245E902468BE4D4
:05438200900080F02214
:10438700900084E0D394004023900080E0B40514AB
:10439700900085E07002800C900085E014F0E070DA
:0D43A7000B0243E5900084E0900085F022B9
:1043B400D3900087E09400900086E0940040077456
:1043C400FFF5F0024A80902C03E030E3047F018083
:1043D400027F001247C9121810EFB402031243E51A
:0143E40022B6
:0743E5001247B37406F02239
:1043EC001247B37409F0900086E4F0A374C8F0226D
:1043FC00902C03E030E3047F0180027F001247C958
:09440C00121810900787EFF0224E
:10441500902C03E030E3047F0180027F0074641276
:0D44250047CB121810EFB402031243EC2233
:10443200900080E064046036E064056031E0602E44
:10444200902C03E030E3047F0180027F001247F4E6
:10445200121810EFB403101247D394E8900088E0CA
:0F4462009403400A0243ECE4900088F0A3F02298
:10447100902C04E030E303D38001C3923820380349
:044481001243EC22D4
:10448500902C03E030E503D38001C392392039062F
:074495001247B37408F02286
:10449C00902C03E030E503D38001C3923A303A0606
:0744AC001247B37407F02270
:1044B3009000807401F0E4900203F07838F6E6444B
:0544C30001F60249B6FC
:1044C80074051247E34410F6E4900081F0900082EE
:0444D800F0A3F0223B
:0944DC0074031247E34404F622C4
:0C44E50090008074011247E64401F622AA
:0E44F100901007740FF0901001E04410F022BC
:1044FF00D31247A6400912479D506CE4F0A3F090E9
:10450F000081E0124AC1453D00454501454D024538
:10451F0073034573044555054557064559074561CE
:10452F000845610945610A45690B0000456E124750
:10453F00C2740FF0802E1247C27496F08026124775
:10454F00C27450F0801E800280001247C27405F0C2
:10455F0080121247C2740AF0800A1244B38005E435
:08456F00900081F01247ED22DB
:10457700D31247A6400912479D5050E4F0A3F0908C
:104587000081E0124AC145AF0045B10145B302457C
:10459700B50345BD0445BD0545CF0645CF0745CF06
:1045A7000845C509000045CA8004800280001247FB
:1045B700C27405F080121247C2740AF0800A1244CE
:0C45C700B38005E4900081F01247ED2263
:1045D300E4900081F07F057E0012160C1245E990ED
:0645E3000081E070F022EF
:1045E900D31247A6400912479D505CE4F0A3F0900E
:1045F9000081E0124AC1464D00464D01464D024632
:104609003003463204464D05464D06463A07463ABA
:1046190008463A09463A0A463A0B463A0C463A0DD2
:1046290046420E0000464780001247C2740AF080D5
:10463900131247C27405F0800B1244C88006E49037
:084649000081F0221247ED226E
:10465100D31247A6400912479D502EE4F0A3F090D3
:104661000081E024FC600D14600A240524F7501633
:10467100600A800D1247C2740AF0800A1244DC807D
:0A46810005E4900081F01247ED22DD
:10468B00902C03E030E3047F0180027F001247F49B
:10469B00121810EFB403141247D394DC900088E087
:1046AB009405400EE4F0A3F00244C8E4900088F0B7
:0346BB00A3F02247
:1046BE00902C04E030E3047F0180027F00EF640160
:1046CE007059902C03E030E5047F0180027F00EFEB
:1046DE006401702F900080E064056007E06004E0E4
:1046EE00B4040B1244B3902923E054FEF022900040
:1046FE0080E0640370401244E5902923E054FEF0FC
:10470E000249B6900080E0B40104740AF0229000D1
:10471E0080E0640A70201244DC8014900080E06413
:10472E00016009E064036004E0B40A0A1244C89010
:07473E002923E04401F022F1
:10474500900201E025E0F0E0700204F0E4FF900043
:1047550080E0B405027F03900080E0B404027F028C
:10476500900080E0B403027F01EF25E02491F582FB
:10477500E43447F583E493FE740193FF900201E06E
:0C478500FDEF5D6003023CFB123D0322CF
:044925009555A5F50A
:0E492900901105E04480F09011017480F0229E
:1047FE00902307E0FF24FC600D24FE603224047039
:10480E004412485B803F902306E0543FFFE4FEEEE7
:10481E00C39F5014902300E0FD74F02EF582E43413
:10482E0000F583EDF00E80E712485B7F8E801390CB
:10483E002302E054DFF01248F6902302E04428F001
:10484E007FCB123B45901105E04480F0229023026D
:0F485E00E054DFF01248F6902302E04428F022E5
:10486D009029077407F0900080E06401600790299B
:10487D0023E04401F0902907740AF0902930740167
:10488D00F0901109E04480F0124929D2AAD2AF90DC
:10489D002301E04420F0E4F0E04410F0E49023061E
:1048AD00F09023057433F0902301E054EFF0902342
:1048BD00027401F01248F6902302E04420F0902398
:1048CD0001E0440AF0902302E04402F0902303E05B
:0848DD0054BFF0E04420F0227A
:0A48E500901105E0547F12492F22C4
:0748EF0012486D1249292255
:0F48F6009023037480F000902303E020E7F92261
:10490500902302E0547FF01248F6902302E04480A1
:02491500F0228E
:034917000247FE56
:0B491A007F119000F0E4F0A3DFFC220E
:0A4968009000A3F0E49000A4F022F8
:0649370090012AEFF022BE
:06493D00743312496822E8
:06494300744412496822D1
:01494900224B
:01494A00224A
:10494B00900119E06401600F90011AE064016007A7
:0D495B0090011BE0B401037F01227F0022C8
:08FFF80005000000FFFFFFFF00
:0C4A1E00902A00E04480F0E054FEF022FA
:10497200EFB4FF08EDB4FF04E4FEFF22EFFE7C007B
:10498200E42DFFEC3E90078EF0A3EFF090078EE04F
:10499200FEA3E0FBCAEECAE4F9F87FB87E4C7D0ABA
:1049A200124BE890078AEEF0A3EFF090078AE0FE40
:0449B200A3E0FF225D
:1049B600124A1E902A0B748FF0902A137433F090CB
:1049C6002A1474C0F0902A557440F0902A15748504
:1049D600F0E4902A60F0A37432F0A37450F0902AA9
:1049E6006374B9F0902A647485F0A37402F0A3741A
:1049F60010F0902A90743CF0A37488F0A37422F00F
:104A0600902A517403F0902A5074FFF0902A00E027
:044A16004401F02245
:044A1A00124A1E22FC
:030000000200708B
:100070007581D01213F9C0E0902006E090000AF0DC
:05008000D0E00200C009
:10008500020200E493A3F8E493A34003F68001F28F
:1000950008DFF48029E493A3F85407240CC8C3337C
:1000A500C4540F4420C8834004F456800146F6DF4B
:1000B500E4800B0102040810204080904A2AE47E67
:1000C500019360BCA3FF543F30E509541FFEE49340
:1000D500A360010ECF54C025E060A840B8E493A307
:1000E500FAE493A3F8E493A3C8C582C8CAC583CA32
:1000F500F0A3C8C582C8CAC583CADFE9DEE780BEEA
:014A2A00008B
:104A2B00BC000BBE0029EF8DF084FFADF022E4CC6F
:104A3B00F875F008EF2FFFEE33FEEC33FCEE9DEC38
:104A4B00984005FCEE9DFE0FD5F0E9E4CEFD22ED7E
:104A5B00F8F5F0EE8420D21CFEADF075F008EF2FC8
:104A6B00FFED33FD4007985006D5F0F222C398FDB9
:054A7B000FD5F0EA2256
:104A8000C5F0F8A3E028F0C5F0F8E58215827002C1
:064A90001583E038F0225E
:104BE800C2D5E830E70FB2D5E4C39BFBE49AFAE4F8
:104BF80099F9E498F8EC30E717B2D5124C1E124B2D
:104C080056E4C39BFBE49AFAE499F9E498F8800324
:104C1800124B5630D50DE4C39FFFE49EFEE49DFD84
:044C2800E49CFC22EA
:104A9600E8600FECC313FCED13FDEE13FEEF13FFFE
:034AA600D8F12222
:0C4AA900E0FCA3E0FDA3E0FEA3E0FF2280
:0C4AB500ECF0A3EDF0A3EEF0A3EFF02274
:104AC100D083D082F8E4937012740193700DA3A384
:104AD10093F8740193F5828883E473740293686098
:064AE100EFA3A3A380DF98
:104AE700D083D082F8E4937012740193700DA3A35E
:104AF70093F8740193F5828883E473740293B5F095
:0D4B0700067403936860E9A3A3A3A380D8FC
:064B14008A838982E4732C
:104B1A0075F008758200EF2FFFEE33FECD33CDCC52
:104B2A0033CCC58233C5829BED9AEC99E5829840D5
:104B3A000CF582EE9BFEED9AFDEC99FC0FD5F0D6B2
:104B4A00E4CEFBE4CDFAE4CCF9A88222B800C1B9DC
:104B5A000059BA002DEC8BF084CFCECDFCE5F0CB1A
:104B6A00F97818EF2FFFEE33FEED33FDEC33FCEB53
:104B7A0033FB10D703994004EB99FB0FD8E5E4F90E
:104B8A00FA227818EF2FFFEE33FEED33FDEC33FCFB
:104B9A00C933C910D7059BE99A4007EC9BFCE99AEF
:104BAA00F90FD8E0E4C9FAE4CCFB2275F010EF2F34
:104BBA00FFEE33FEED33FDCC33CCC833C810D70734
:104BCA009BEC9AE899400AED9BFDEC9AFCE899F86F
:0E4BDA000FD5F0DAE4CDFBE4CCFAE4C8F92202
:00000001FF
