:1010FE0049543837335820436F64656261736520F5
:10110E0056312E30202D20436F70797269676874C6
:10111E002049544520546563682E20496E632E0085
:10112E001062106210621062106210621062106221
:10113E0010211022103710621062106210621061BE
:10114E00104D106210621062106210621062106216
:10115E001000100110621011106210621065106202
:10116E0010621062106210621062106210631064DE
:10117E0010621062106210621062106210621062D1
:10118E0010621062106210621062106210621062C1
:10119E0010621062106210621062106210621062B1
:1011AE0010621062106210621062106210621062A1
:1011BE001062106210621062106210621062106291
:0110000022CD
:10100100D200901107E054FDF09011037402F02218
:10101100D203901107E054F7F09011037408F02205
:0110210022AC
:10102200901105E054FDF09011017402F090011945
:0510320014F0D20722BA
:10103700901105E054FBF09011017404F090011A2F
:061047007401F0D2072243
:10104D00901106E054FEF09011027401F090011B16
:04105D00F0D20722A4
:01106100226C
:01106200226B
:01106300226A
:011064002269
:10106500C0D075D010901107E054BFF090110374F3
:0810750040F012175ED0D022FA
:0300030002107D6B
:01107D003240
:03000B0002107E62
:10107E00C0E0C0F0C083C082C0D075D0101214ACD6
:0D108E00D202D0D0D082D083D0F0D0E0329A
:0300130002109B3D
:10109B00C0E0C0F0C083C082C0D075D010901110DA
:1010AB00E0789D666004E0F6802F901110E0C39409
:1010BB0060501FE024F0547F25E0242EF582E434A9
:1010CB0011F583E493FE740193CAEECAF9124AE850
:1010DB008003121062789D7600D0D0D082D083D05E
:0410EB00F0D0E0322F
:03001B000210EFE1
:0110EF0032CE
:030023000210F0D8
:0110F00032CD
:03002B000210F1CF
:0110F10032CC
:0710F200C2AF000000002264
:0510F900D2AAD2AF22D3
:10135B00125A125D125E12701273127413511352E1
:10136B001353135413551356135713581359135A26
:10137B00902907F09029307401F0E4902907F09040
:10138B001107E022E5355407FF7401C8EFC80822A6
:100200001210F27581D0E53B64AA701E901000E0D8
:10021000547FF00075F7010075F7010075F70100D4
:1002200075F7010000E4F53B803012143E1210F91E
:10023000741112137B4402F09011037402F09015B4
:1002400006E04401F0741212137B4408F09011038D
:100250007408F0901516E04401F01214B5900500F2
:100260007406F0E4900501F0900080F090008A742C
:1002700002F01211CE901107E04402F0E04408F0C1
:100280001210F900000000E52070E7E52170E37529
:0C0290008701000000000000000080D684
:1011CE0002124CE53745367003021259E4F535E547
:1011DE003720E00FE536C313F536E53713F537053F
:1011EE003580ECE535C39408500E12138F8002C380
:1011FE0033D8FCF45220800C12138F8002C333D8E4
:10120E00FCF45221AF35EF25E0245BF582E4341374
:10121E00F583E493FE740193CAEECAF9124AE8907C
:10122E001500E030E104D2008014901510E030E19A
:10123E0004D2038009901D08E030E102D201AF21F3
:0C124E00EFAD20F536EDF5370211D1228E
:03125A00023166F8
:01125D00226E
:10125E00123BFE900000E004F0E0B40504D205E479
:02126E00F0226C
:031270000234C77E
:011273002258
:10127400123C41900001E004F0900008E004F0E02A
:10128400C394194005E4F0123C59900001E030E0A9
:1012940017123C47900009E004F0E0C3941950038E
:1012A400021350E4F0023C5A900001E024FC601167
:1012B40024FE601224FE601324067023123C48802E
:1012C40023123C49801E123C4A8019900004E00419
:1012D400F0E030E005123C4B800A123C578005E4F4
:1012E400900001F0900001E07062900003E004F0CF
:1012F400E030E003023C58900003E0124A951321C9
:1013040002132304132506132708132A0A132D0C8A
:1013140013300E13251013361200001339800A807F
:101324000B800C023C5E023C61023C5B023C5C02B2
:101334003C5D023C62E4900003F0900006E004F09F
:0D134400E0B40A08123C63E4900006F022B9
:011351002279
:011352002278
:011353002277
:011354002276
:011355002275
:011356002274
:011357002273
:011358002272
:011359002271
:01135A002270
:1017FA00901C25F0901C267419F0901C2722901C2E
:10180A0023F0901C247403F022902907F0902930C9
:09181A0022901C22F0901C2322F4
:10139B0090200D7403F09020127427F090200674A7
:1013AB0084F0902014740BF0E4902015F01217E5E4
:1013BB007F647E0012161F74071218137401F090CD
:1013CB0029E97420F090292C748BF0902962740217
:1013DB00F0E4902963F0902A00E04480F0902A0B0F
:0E13EB00E04410F074FEFFFE1217838F3C22C8
:1013F9007F20900000AC83C3EC94105005E4F0A367
:1014090080F3EFC394D05008C8EFC8E4F60F80F218
:0114190022B0
:10141A009029077407F090292A7402F0E4902A9818
:10142A00F0902A997497F0902A9C7440F0902A9E22
:04143A0074C3F02265
:10143E0012139B9000507401F0123CE11215E0E47F
:10144E00900203F012179A12146B9022BFE0B4555B
:0D145E000B9005057401F0E49022BFF02210
:10146B00C28CC28DE4F58A758CFD758911D28CD234
:08147B00A9C28EC28FC28E22AD
:10148300900700EEF0A3EFF0C2ABC28E00000000A5
:10149300900700E0F58DE0A3E0F58BC28FD28E229A
:0914A300758A06758CF1C28D22D8
:0914AC00E4F58A758CFDC28D2265
:1014B5009029077419F0E4902970F0902930F09084
:1014C5002976E04402F0901C107401F0902976E032
:1014D50054FEF0122BB5746475F000124ABB1580EA
:1014E500000A155B000D153A001415260032151279
:1014F500006414FF0190000015A4740312181B1456
:10150500F0901C2404F01217FA74C9803C901C2238
:101515007415F0742512180874151217FA74B8802A
:1015250028901C22742CF07453121808742C12176E
:10153500FA74A08014747112181B74DD12180B90C4
:101545001C2574711217FD745BF0901C287401F052
:10155500E4901C33F022901C2274AFF0901C23748D
:101565005A12180B901C2574AF1217FD741DF090BC
:101575001C287401F0901C3304F022901C2274E4A2
:10158500F0901C2374C512180B901C2574E41217D7
:10159500FD74E8F0E4901C28F0901C337402F022EE
:1015A500E4902990F09029927430F090299174FF7D
:1015B500F09029947402F0E4902993F0902996F024
:1015C500902995F0902998F090299774FFF090292B
:0B15D5009A7402F090299974FFF02234
:1015E00074041218137401F0902AAC743FF0902A1E
:0C15F0005074FFF0902A00E04401F0224B
:1015FC00902A137477F0902A1474C0F0E4902A1592
:10160C00F0902A637450F0E4902A16F0902A6B74D0
:03161C0050F02269
:10161F00900790EEF0A3EFF0A2AF923BC2AF90070E
:10162F0090E07002A3E06018E4FFE490200BF00F4D
:10163F00EFB442F690079074FFF5F0124A5480DE33
:05164F00A23B92AF2256
:06165400902C06EFF022CD
:10165A00C2A9C2AB90111D7410F0901B0AF0901B26
:05166A000674FFF022F0
:10166F00E4901B0AF090111DF090008A7402F0D2E2
:02167F00A9229E
:10168100900080E064056003E07007902923E04446
:1016910001F09029077402F090293014F09029F09C
:1016A100E04408F09029077407F0902926E0547F60
:1016B100F0E054BFF09029C1E0547FF0E054BFF056
:1016C1009028037480F0902801E4F09028007406BB
:1016D100F09028037403F0902802E04486F0E0447F
:1016E10001F0902801E04401F0902804E04408F062
:0E16F100901115E04480F09011147480F022E6
:1016FF00900080E064056003E07007902923E044C8
:10170F0001F09029077401F0902930F09029F0E052
:10171F004408F09027037480F0902701E4F090279D
:10172F00007403F0902703F0902702E04486F0E066
:10173F004401F0902701E04401F0902704E04408B1
:0F174F00F0901115E04440F09011147440F02216
:10175E00901F05E04401F0E4901F02F0901F037407
:10176E007DF0E4901F04F09011037440F090110787
:05177E00E04440F022F0
:10178300900790EEF0A3EFF0900790E0FEA3E0F552
:07179300828E83E493FF2224
:10179A007F007E22902280E0B4460F902281E0B43E
:1017AA000508902282E064026028C3EF94C0EE9498
:1017BA0022500D8F828E83E4F00FBF00010E80EA63
:1017CA009022807446F09022817405F090228274EF
:0317DA0002F022F8
:0817DD00901107E04401F02225
:0717E5009010337403F022A1
:0E17EC009029077407F090292DE04401F022A7
:101A1C00000B000D0102000B000E0408000B000F60
:101A2C001020000B00104080000C00110102000C73
:101A3C0000120408000C00131020000C001440804D
:101A4C00901802E04410F090180022900705E0FF77
:101A5C00A3E0FAA3E0F5828A83EFF08D828C8322D7
:0F1A6C00E0FEA3E0FF7C007D1E1249FFED4C223F
:10182300900702EFF0A3EDF0CEEBCEEB5407FE757D
:10183300F006A4241CF582E4341AF583E493FC74C3
:101843000193FDCBEECBEE75F006A4241EF582E4E6
:10185300341AF583E493FB740193900706CBF0A34A
:10186300EBF0EE75F006A42420F582E4341AF58338
:10187300E493F9EE75F006A42421F582E4341AF515
:1018830083E493900708F0900703E0FE900702E0DB
:101893006E706A8D828C83E0FE900708E0FBEE5B3E
:1018A30070508D828C83E059700A121A57E049F008
:1018B3007F0180627F01900706E0FAA3E0FBF582D7
:1018C3008A83E014F08B828A83E0704A8D828C8352
:1018D300C083C082E0FF900708E0FEEF4ED082D0C5
:1018E30083F08D828C83E0FFE9F4FEEF5EF07F02EC
:1018F30080248D828C83E049F07F038019121A576C
:10190300C083C082E0FF900708E029F4FEEF5ED0B9
:0719130082D083F0E4FF2203
:10191A00902C00E030E0047F0180027F00900705F0
:10192A00740AF07B01E4FD121823EF64026028EFC9
:10193A00B4031D900015E475F001124A54D39000C7
:10194A0016E09419900015E09400400B121A6C22CC
:08195A00E4900015F0A3F02257
:10196200902C00E030E1047F0180027F00900705A7
:10197200740AF07B02E4FD121823EF64026028EF80
:10198200B4031D900017E475F001124A54D390007D
:1019920018E09419900017E09400400B121A6C2280
:0819A200E4900017F0A3F0220D
:1019AA00901802E054F7F07F01E47065EF124A954F
:1019BA0019D60019E40119EC0219F30319FA041AE9
:1019CA0001051A08061A0F0700001A1B901802E0F0
:1019DA0054EFF09018007401F022901802E054EFCE
:1019EA008029121A4C74B3F022121A4C748FF02206
:1019FA00121A4C7447F022121A4C7423F022121A4B
:101A0A004C7411F022901802E04410F0E49018008F
:021A1A00F022B8
:10243600104510441043104810471046104B104AE0
:082446001049104E104D104C1E
:0B1A7B00000000000000000002FE0060
:10FE0000E4F539F53A9015017433F0901500E030BF
:10FE1000E1F9901500E030E3F2901504E0F539E5E2
:10FE20003AB4010B90103FE539F0E4F53A80DCE597
:10FE300039B4011C90103E740FF090103D74FFF027
:10FE400090103C14F0E490103BF090103FF080BB19
:10FE5000E539B4020890103C74FDF08005E539B432
:10FE60000305753A0180A4E539B4040A90103FE017
:10FE7000901501F08095E539B4050BE490103EF043
:10FE800090103DF08085E539B4FC05753BAA8024CF
:10FE9000E539B4FD0843D80143D80280FEE5396452
:10FEA000FE600302FE0B9022BF7455F043D801435D
:07FEB000D80280FE020200EF
:101A860090103E740FF090103D74FFF0E490103B00
:101A9600F090103C74FEF090103F04F090103C74EF
:101AA600FDF090103F7405F0E0900099F0E490107E
:071AB6003EF090103DF0220C
:101ABD0090103E740FF090103D74FFF0E490103BC9
:101ACD00F090103C74FEF090103F04F090103C74B8
:101ADD00FDF090103F7405F090103FE020E0F9907C
:101AED00103C74FEF090103F04F090103C74FDF02B
:101AFD0090103F7406F090009DE0B4BF1790103C1D
:101B0D0074FEF090103F04F090103C74FDF09010B6
:101B1D003F7450F090103C74FEF090103F04F09024
:101B2D00103C74FDF090103F7401F090009AE0901D
:101B3D00103FF090103C74FEF090103F04F09010A8
:101B4D003C74FDF090103F7405F090103FE020E0E4
:0B1B5D00F9E490103EF090103DF022E3
:101B680090103E740FF090103D74FFF0E490103B1D
:101B7800F090103C74FEF090103F04F090103C740C
:101B8800FDF090103F7405F090103FE020E0F990D0
:101B9800103C74FEF090103F04F090103C74FDF07F
:101BA80090103F749FF0E4900094F090103FE0FF95
:101BB800900094E02490F582E43400F583EFF090EF
:101BC8000094E004F0E0B404E2900090E090009DFE
:101BD800F090103C74FEF090103F04F090103C74AC
:101BE800FDF090103F7405F090103FE020E0F9E41C
:091BF80090103EF090103DF02227
:101C010090103E740FF090103D74FFF0E490103B83
:101C1100F090103C74FEF090103F04F090103C7472
:101C2100FDF090103F7405F090103FE020E0F99036
:101C3100103C74FEF090103F04F090103C74FDF0E5
:101C410090103F74ABF0E4F0F0F0900094F090103D
:101C51003FE0FF900094E02490F582E43400F583A6
:101C6100EFF0900094E004F0E0B404E2900090E022
:101C710090009DF090103C74FEF090103F04F090A5
:101C8100103C74FDF090103F7405F090103FE0207F
:0C1C9100E0F9E490103EF090103DF022CD
:101C9D0090103E740FF090103D74FFF0E490103BE7
:101CAD00F090103C74FEF090103F04F090103C74D6
:101CBD00FDF090103F7405F090103FE05403FFBF0E
:101CCD0002F690103C74FEF090103F04F090103C22
:101CDD0074FDF0900098E090103FF0E4900094F0C7
:101CED00900094E02495F582E43400F583E09010A3
:101CFD003FF0900094E004F0E0B403E490103C74E5
:101D0D00FEF090103F04F090103C74FDF090103FE9
:101D1D007405F090103FE020E0F9E490103EF09053
:041D2D00103DF02253
:101D310090103E740FF090103D74FFF0E490103B52
:101D4100F090103C74FEF090103F04F090103C7441
:101D5100FDF090103F7405F090103FE020E0F99005
:101D6100103C74FEF090103F04F090103C74FDF0B4
:101D710090103F7406F090009DE0B4BF1790103CA6
:101D810074FEF090103F04F090103C74FDF0901040
:101D91003F7450F090103C74FEF090103F04F090AE
:101DA100103C74FDF090103F7405F090103FE0542A
:0F1DB10003FFBF02F6E490103EF090103DF022C9
:101DC00090103E740FF090103D74FFF0E490103BC3
:101DD000F090103C74FEF090103F04F090103C74B2
:101DE000FDF090103F7405F090103FE020E0F99076
:101DF000103C74FEF090103F04F090103C74FDF025
:101E000090103F7404F090103C74FEF090103F046A
:101E1000F090103C74FDF090103F7405F090103F6E
:0F1E2000E0540370F8E490103EF090103DF02273
:101E2F0090103E740FF090103D74FFF0E490103B53
:101E3F00F090103C74FEF090103F04F090103C7442
:101E4F00FDF090103F7405F090103FE020E0F99006
:101E5F00103C74FEF090103F04F090103C74FDF0B5
:101E6F0090103F7402F0900095E090103FF09000BA
:101E7F0096E090103FF0900097E090103FF0E490C4
:101E8F000094F090009BE0FEA3E0F5828E83E0903B
:101E9F00103FF0900094E004F090009CE004F0906C
:101EAF000094E070DE90103C74FEF090103F04F050
:101EBF0090103C74FDF090103F7405F090103FE0CF
:0D1ECF0020E0F9E490103EF090103DF0226C
:101EDC0090103E740FF090103D74FFF0E490103BA6
:101EEC00F090103C74FEF090103F04F090103C7495
:101EFC00FDF090103F7405F090103FE020E0F99059
:101F0C00103C74FEF090103F04F090103C74FDF007
:101F1C0090103F74ADF0900095E090103FF0900061
:101F2C0096E090103FF0900097E090103FF0E49016
:101F3C000094F090009BE0FEA3E0F5828E83E0908D
:101F4C00103FF0900094E004F090009CE004F090BE
:101F5C000094E020E03B90103C74FEF090103F04A5
:101F6C00F090103C74FDF090103F7405F090103F11
:101F7C00E020E0F9900094E0601790103C74FEF0C3
:101F8C0090103F04F090103C74FDF090103F74AD35
:101F9C00F0900094E0709C90103C74FEF090103F18
:101FAC0004F090103C74FDF090103F7404F0E49039
:0F1FBC00200BF0F0F0F090103EF090103DF0226E
:101FCB0090103E740FF090103D74FFF0E490103BB6
:101FDB00F090103C74FEF090103F04F090103C74A5
:101FEB00FDF090103F7405F090103FE020E0F99069
:101FFB00103C74FEF090103F04F090103C74FDF018
:10200B0090103F74AFF0900095E090103FF090006F
:10201B0096E090103FF0900097E090103FF0E49026
:10202B000094F090009BE0FEA3E0F5828E83E0909D
:10203B00103FF0900094E004F090009CE004F090CE
:10204B00103C74FEF090103F04F090103C74FDF0C7
:10205B0090103F7405F090103FE020E0F990009451
:10206B00E0601790103C74FEF090103F04F090105D
:10207B003C74FDF090103F74AFF0900094E070A3AF
:10208B0090103C74FEF090103F04F090103C74FDE7
:10209B00F090103F7404F0E490200BF0F0F0F0900F
:0820AB00103EF090103DF02200
:1020B30090009DE0B4BF1390009EE0B401067E1F24
:1020C3007FCB800A7E1E7FDC80047E1E7F2F122141
:0220D300852264
:1020D50090103E740FF090103D74FFF0E490103BAB
:1020E500F090103C74FEF090103F04F090103C749A
:1020F500FDF090103F7405F090103FE020E0F9905E
:10210500103C74FEF090103F04F090103C74FDF00C
:1021150090103F740BF0900095E090103FF0900008
:1021250096E090103FF0900097E090103FF0E4F0BB
:10213500900094F090103FE0FF90009BE0FCA3E03E
:10214500F5828C83EFF0900094E004F090009CE021
:1021550004F0900094E070DC90103C74FEF0901058
:102165003F04F090103C74FDF090103F7405F09022
:10217500103FE020E0F9E490103EF090103DF02291
:10218500789976060876007870EEF608EFF6E4F5AD
:10219500317870E6FE08E6F5828E83E493FF789940
:1021A500E6FC08E6F5828C83EFF006E6187001067A
:0F21B500787106E6187001060531E53170D32206
:1021C4001210F27EFE7F00122185901000E0448000
:0521D400F0121A7B224D
:1021D90090009AEFF01210F27E1A7FBD12218590BD
:1021E9001000E04480F0121A7B1210F9901000E000
:0421F900547FF022FD
:1021FD001210F27E1A7F86122185901000E0448025
:0F220D00F0121A7B1210F9901000E0547FF022AB
:10221C001210F27E1B7F68122185901000E0448022
:0F222C00F0121A7B1210F9901000E0547FF0228C
:10223B001210F27E1C7F01122185901000E0448069
:0F224B00F0121A7B1210F9901000E0547FF0226D
:10225A00900098EFF0900095EDF0A3EBF090070E48
:10226A00E0900097F01210F27E1C7F9D122185905B
:10227A001000E04480F0121A7B1210F9901000E06E
:04228A00547FF0226B
:10228E0090009BEEF0A3EFF0900095EDF0A3EBF035
:10229E00900713E0900097F01210F21220B39010F6
:1022AE0000E04480F0121A7B1210F9901000E054F6
:0322BE007FF0228C
:1022C10090009BEEF0A3EFF0900095EDF0A3EBF002
:1022D100900718E0900097F01210F27E207FD5123F
:1022E1002185901000E04480F0121A7B1210F990C1
:0722F1001000E0547FF02211
:1022F8001210F27E1D7F31122185901000E044807B
:0F230800F0121A7B1210F9901000E0547FF022AF
:102317001210F27E1D7FC0122185901000E04480CC
:0F232700F0121A7B1210F9901000E0547FF02290
:10233600CEEBCECCEDCCCDEFCDCFECCFCBEFCB9063
:0C2346000718EEF07F007E081222C12272
:10235200900719EFF0A3EDF0A3EBF0E4FF1221D9FF
:102362001222F8900719E0FDA3E0FBA3E090070E0C
:10237200F07F2012225A1222F8900719E0FDA3E002
:10238200FBA3E0900713F07F007E0812228E122337
:02239200172210
:1023940090071CECF0A3EDF0CBEFCBEB75F006A4AB
:1023A4002436F582E43424F583E493FE740193F532
:1023B400828E837480F090071CE0FFEB75F006A416
:1023C4002438F582E43424F583E493FC740193F512
:1023D400828C83EFF090071CE0A3E0FFEB75F0061E
:1023E400A4243AF582E43424F583E493FC74019341
:1023F400F5828C83EFF0EB75F006A42436F582E4C5
:102404003424F583E493FE740193F5828E83E4F01F
:0124140022A5
:1024150090103EE0FEE4F090103DEFF090103CEDA2
:10242500F090103BEBF090103FE0FF90103EEEF087
:012435002284
:102F2B001C011C031C021C001C041C051C061105A7
:102F3B001101021C071C121C141C131C111C151C48
:102F4B00161C1711051101041C181C2A1C2C1C2BF8
:102F5B001C291C2D1C2E1C2F11061102011C301CB0
:102F6B00001C101C0A2C076001001C111C211C1BCF
:102F7B002C000201011C291C321C312C03C0010244
:102F8B001C011C101C031C001C061C121C211C14F5
:0E2F9B001C111C171C2A1C321C2C1C291C2F5C
:102FA90090071FE075F015A42431F582E4342FF55C
:102FB90083E493FE740193F5828E8322900753E094
:102FC900FF75F00AA42491F582E4342FF583E49384
:102FD900FC740193F5828C8322900752F0EF75F00F
:102FE9000AA4248BF582E4342F2290074CE0FF7564
:102FF900F00AA42491F582E4342FF583E493FC7458
:103009000193FDF5828C83E022900753E0FF75F070
:103019000AA4248DF582E4342F22F583E493FA740B
:103029000193F5828A832290072AE075F015A4247A
:103039002BF582E4342F22900745E075F00AA42489
:1030490091F582E4342F224401FFE0FE75F015A4C6
:10305900242DF582E4342F22E0FFEE75F015A42427
:103069002FF582E4342F22900736E0FEA3E0F582A3
:103079008E83E0FF22E0FF75F00AA42493F582E431
:10308900342F22C28EC28FD2AB22EF75F015A42441
:1030990033F582E4342F22E0FF75F015A42431F5CD
:1030A90082E4342F22758DB2758B19C28FD28E228C
:1030B900900732E075F015A42437F582E4342F2205
:1030C9009029077419F09029307401F0902976E05D
:1030D90022E04402F08D828C8374FE22F583E4930E
:1030E900F8740193F582888322FEEF75F00AA4240F
:1030F9008FF582E4342F22EE75F00BA4246EF5824D
:10310900E4342F2290071FE075F015A42435F582C9
:10311900E4342F22FDE0FAA3E02DF582E43AF583A9
:10312900EEF022E0FEA3E0FFF5828E83E022EE7549
:10313900F00BA4246CF582E4342F22ED25E0FD90F8
:103149000103E022EC75F00BA42473F582E4342F1B
:0D3159002275F015A4243EF582E4342F22E7
:0E244E00E4FF90071EE004F00FEFB4C8F52283
:10245C00CEEFCEEE123034122FD5E04402F0E05421
:10246C00FDF09020097406F0EE75F00BA4246AF5CB
:10247C0082E4342F122FD574FEF0EE702A1230C97C
:10248C0054FD12254B902C07E04420F09029CFE00E
:10249C004420F0902C07E04440F09029CFE04440D9
:1024AC00F012244E02251DEE6402706B1230C954DA
:1024BC00FE12254B9029C3E04440F09029CBE04418
:1024CC0040F0902C03E04440F0902928E04440F088
:1024DC009029C3E04480F09029CBE04480F0902C0C
:1024EC0003E04480F0902928E04480F012244E90C0
:1024FC0029077407F09029C3E054BFF0902928E015
:10250C0054BFF09029C3E0547FF0902928E0547F09
:10251C00F01230C94402F0123137122FD57402F088
:10252C00123100122FD57403F012244E1231001206
:10253C002FD57407F0123137122FB87401F022F036
:0A254C0012244E9029077407F022B4
:10255600900720EDF0A3EBF090071FEFF07D01123E
:102566002A0DEF7007900729F002271E900727749F
:10257600EEF0E4900729F0900103F0900720E020A8
:10258600E703022622900725E06008900721E0FF76
:102596001229C2900721E0FF90071FE01230551262
:1025A6002FD5EFF0900725E06008900722E0FF1294
:1025B60029C2900722E0FF90071FE0123064122F15
:1025C600D5EFF0900720E0547FF0900725E06009F2
:1025D6009007231230731229C290072312312CFD63
:1025E60090071FE0123094123023EDF0900720E0A0
:1025F600640C7042900725E0600A8F828E83A3E008
:10260600FF1229C2900723E0FEA3E0F5828E83A382
:10261600E0FF12310D122FD5EFF0801A900721E05E
:1026260090071F123050122FD5EFF090072212306C
:1026360061122FD5EFF090071F1230A0122FD5741C
:10264600FEF0900725E0601C900103E0FE90071F56
:10265600E0FD12315A123023EEF0900720E044C01C
:10266600FEED8008900720E04440FEEF1230341261
:102676002FD5EEF0C28EC2AB000000001230AE20A5
:102686008F10122FA9E0900728F0E0547E60F01218
:10269600308C308F0D12308C90071FE0FF12245CB7
:1026A6008016900728E0FF547C6015EF54186008E8
:1026B60090071FE0FF12245C90072774EEF0800558
:1026C600E4900727F0900727E0B4EE07E490072987
:1026D600F0803F90071FE0FF123055122FD5E030F3
:1026E600E02A123093122FB8E0FF900723E0FCA3F4
:1026F600E0FDF5828C83EFF0900720E0B40C0D121C
:10270600310D122FB8E08D828C83A3F090072974C7
:0E27160001F0122FA974FEF0900729E0FF22B7
:1027240090072BEDF0A3EBF090072AEFF07D011258
:102734002A0DEF7007900730F0022845E490073027
:10274400F0A3F090072CE090072A123050122FD5F6
:10275400EFF090072D123061122FD5EFF0EE122F0B
:10276400AD74FEF090072BE04440FF123030122F7E
:10277400D5EFF0C28EC2AB000000001230AE308F35
:102784000302281C90072A1230A0122FD5E0FE5411
:10279400FC60EBEE547C6013EE5418600312245C6E
:1027A40012308CE4900730F002281C90072AE0FFD6
:1027B4001230BD122FD5E0FE90072EE0FCA3E0F509
:1027C400828C83EEF0900731E07010123093122F58
:1027D400B8E0900731F0E0FF12490B900731E014A4
:1027E400F090072EE475F001124A54900731E0FF8F
:1027F400B4010A123030122FD5E04420F090072A99
:10280400E01230A2122FD574FEF0EF60030227828B
:1028140012308C90073004F0308F1012308C9007F7
:102824002AE0FF12245CE4900730F090072AE0FFCE
:10283400123034122FD5E054DFF0EF122FAD74FEB6
:07284400F0900730E0FF22D5
:10284B00900733EDF0A3EBF0900732EFF07D011220
:10285B002A0DEF700790073AF00229BCE490073A73
:10286B00F0A3F0900739E06023E4900103F09007A8
:10287B0034E0FF1229C2900735E0FF1229C29007FE
:10288B0038E0FF1229C21230701229C2900733E0D0
:10289B00547FF0A3E0FF900732123053122FD5EF85
:1028AB00F0900735123061122FD5EFF0900738E01A
:1028BB00FFEE123094122FD5EFF090073BEFF01292
:1028CB003070900732E0FE1230BD122FD5EFF0EED4
:1028DB00122FAD74FEF0900739E09007336005E0DE
:1028EB0044C08003E04440FF900732123033122F74
:1028FB00D5EFF0C28EC2AB000000001230AE308FAD
:10290B00030229A09007321230A0122FD5E0FE54FB
:10291B00FC60EBEE547C6013EE5418600312245CE5
:10292B0012308CE490073AF00229A090073BE01498
:10293B00F0900736E475F001124A5490073BE060C3
:10294B004B900739E0602E90073612312CFD123078
:10295B00B9123023EDF08F828E83E0FF1229C290E3
:10296B00073BE064017019900103E0FF900732E030
:10297B0012315A80061230701230B9122FD5EFF087
:10298B00900732122FAC74FEF002290912308C9092
:10299B00073A7401F0308F1012308C900732E0FF41
:1029AB0012245CE490073AF0900732122FAC74FEBD
:0729BB00F090073AE0FF2253
:1029C200900103E06FF0E0FD20E70CFF25E0FDE061
:1029D200CFEDCF6DF080091231446409F0E06DF063
:1029E200ED20E7061231456DF0221231446407F002
:0729F200E0CEEDCE6EF022F5
:1029F900EF123101122FB8E05403FEBE03037F002A
:042A0900227F012205
:102A0D0090073CEDF0CCEFCC7D01CFECCF1229F946
:102A1D00EF6401701DFD12314D122FB8E0FF04F06F
:102A2D00900104E0FEEFD39E4012CFECCF12245C58
:102A3D00800A12314D122FB8E4F07D01CFEDCF2277
:102A4D0090073DEDF0A3EBF0CAEFCA7D01122A0D00
:102A5D00EF7004F9022AEF7DEEE4F990073DE0FFF7
:102A6D00EA1230551230E5EFF090073EE0FFEA1222
:102A7D0030641230E5EFF0EA122FAD74FEF0EA1279
:102A8D003034122FB87444F0C28EC2AB0000000077
:102A9D001230AE208F11EA122FADE090073FF0E01B
:102AAD00547E60EF12308C308F0D12308CCFEACF08
:102ABD0012245C7DEE801A90073FE0FF547C600F7E
:102ACD00EF54186006CFEACF12245C7DEE8002E44D
:102ADD00FDEDB4EE04E4F980027901EA122FAD7434
:062AED00FEF0CFE9CF224C
:102AF300900740EDF0A3EAF0A3EBF0C9EFC97D0125
:102B0300122A0DEF7007900743F0022BAF7DEEE41E
:102B1300900743F0900740E04401FFE9123055125B
:102B23003023EFF0E9122FAD74FEF0E912303412C6
:102B33002FB87444F0C28EC2AB000000001230AE56
:102B4300208F11E9122FADE0900744F0E0547E602E
:102B5300EF12308C308F0D12308CCFE9CF12245C02
:102B63007DEE801A900744E0FF547C600FEF541809
:102B73006006CFE9CF12245C7DEE8002E4FDEDB464
:102B8300EE07E4900743F0801CE9123094122FB84B
:102B9300E0FF900741E0FCA3E0F5828C83EFF09027
:102BA30007437401F0E9122FAD74FEF0900743E080
:022BB300FF22FF
:072BB5009001047414F022EA
:102BBC00900745EFF0900747EBF090074B7401F04E
:102BCC00E490074AF0900745123015123023740335
:102BDC00F0ED44011230F2122FD5EEF090074512B1
:102BEC002FC8E044FEF0900747E0B4010B122FE62B
:102BFC00122FB8747CF0800D900745E0122FE7126D
:102C0C002FB8745CF07F197EB212148390074512B2
:102C1C002FF654FE7013308FF390074B122FE512E2
:102C2C002FB81230DAF0022CC3900747E014F09062
:102C3C000745122FC8E0547C602A122FE6122FD5BC
:102C4C00E04402F000E054FDF0122FE6122FB8E041
:102C5C004402F0123040122FB874FEF0E490074B8F
:102C6C00F0022CC390074512307E122FD5E0FE9057
:102C7C00074AE090074812311D90074AE004F09093
:102C8C000747E0FEB4010C122FE6122FD5E04420CA
:102C9C00F08011EE700E900745E0123017122FB82D
:102CAC00E054FDF0123040122FB8E04480F0900751
:0D2CBC0047E06003022C1190074BE0FF225F
:102CC90090074CEFF090074EEBF09007527401F02B
:102CD900E4900751F090074C123015123023740319
:102CE900F0EF123044F583E493FE7401931231300E
:102CF90044FEF0ED54FEFD90074CE0F91230F41259
:102D09003023EDF08F828E83E044FEF090074F125E
:102D19003073E9123080122FD5EFF0E9122FE71244
:102D29002FB8745CF07F197EB2121483122FF354FA
:102D3900FE700F308FF6122FE2122FB81230DA021E
:102D49002DB390074EE014F0122FF3547C600DE47C
:102D5900122FE2122FB81230DAF0803790074EE0C6
:102D6900FF602D900751E004F0E0FE90074FE0FC72
:102D7900A3E02EF582E43CF583E0FE90074CE0FDEC
:102D8900123080123023EEF0ED122FCAE04480F0A9
:102D9900EF709290074C123015122FD5E054FDF0C8
:102DA900EF123044122FB8E04480F0900752E0242B
:022DB900FF22F7
:102DBB00900753EFF090075A7401F0E4900759F025
:102DCB001230121230E57403F0ED54FE1230F21291
:102DDB002FD5EEF0122FC5E044FEF0EF123080122B
:102DEB002FD5EBF0900753E0122FE7122FB8745C3E
:102DFB00F07F197EB2121483900753122FF654FEF4
:102E0B007006308FF3022E71122FC5E0547C6026B2
:102E1B00122FE6122FD5E04402F000E054FDF0E44F
:102E2B0090075AF0EF123017122FB8E054FDF090C4
:102E3B000753E0022F1B123012123003440CF0EF39
:102E4B00123044122FB8E04480F08D828C83E05412
:102E5B00FBF07F197EB2121483900753122FF65496
:102E6B00FE7012308FF390075A122FE5122FB81203
:102E7B0030DA022F24900756E014F0122FC5E054DD
:102E8B007C602C122FE6122FD5E04402F000E054A8
:102E9B00FDF0E490075A122FE5122FB8E04402F030
:102EAB00900753123043122FB874FEF0022F10907C
:102EBB00075312307E122FD5E0FE900759E0900792
:102ECB005712311D900759E004F0900756E0FEB4FD
:102EDB00010C122FE6122FD5E04420F08011EE707A
:102EEB000E900753E0123017122FB8E054FDF090FC
:102EFB000753123043122FB8E04480F0900756E08E
:102F0B006003022E5D123012122FD5E054FDF0EF4C
:102F1B00123044122FB8E04480F090075AE0FF22A1
:10343E003174318F31AE31C431CE3D993D9A3D9BC1
:10344E003D9C3DA43DAC3DC13DC23DC33DC43DC5CB
:10345E003E743E7A3E803E863E8C3E923E983E9E26
:10346E0033D23EA43EB43EC43ED43EE43EF43F04CA
:10347E003E39317B319631A03E3A3E3B3E3C3E3D9D
:10348E00000000000000000000000000000000002E
:10349E0090002BE02420F582E43400F58322900086
:1034AE003BE02430F582E43400F58322F583E49387
:0934BE00FE740193CAEECAF92262
:0E316600901500E030E1061233C51233E52269
:073174001232107561012207
:10317B00AF63123D8D8F64901501E564F012321030
:04318B00E4F56122E4
:07318F0012321075610222EB
:0A3196008563641232107561032294
:0E31A000123210AD63AF64123D93E4F561226C
:1031AE00901500E04410F09015017490F07838E618
:0631BE004480F60232100D
:0A31C400901500E054EFF002321005
:1031CE0012325490002EEFF0E0901501F0123210F2
:1031DE0090002EE0D394004019E0FF90004FE05491
:1031EE000F2440F582E43400F583EFF090004FE0B9
:1031FE0004F0E490002FF090002DF07838E654BFE4
:02320E00F622A6
:103210007838E6C4131313540130E00C902C07E007
:0932200054DFF000E04420F0222C
:0D322900902C07E054DFF000E04420F0227C
:10323600902C06E054FDF07F1912324A902C06E0DD
:043246004402F0222C
:0A324A00EFD3940040031F80F72229
:1032540012349EE090002FF0E07009901500E054C5
:10326400DFF0801312349EE4F090002BE004F0E0D1
:0D327400D394094002E4F090002FE0FF2207
:103281007838E620E0037F002290002A1234A1E082
:10329100700E90002A1234A1EFF090002AE004F0A1
:1032A10090002AE0D394094002E4F0901500E04434
:1032B10020F07838E6FFC41313540330E0037F0095
:0D32C100227838E64440F61232107F0022D9
:1032CE001234ACE090003FF0E0700D901500E05429
:1032DE00BFF090002FE0FF221234ACE4F090003BE0
:1032EE00E004F0E0D394094002E4F090003FE0FFE8
:0132FE0022AD
:1032FF00EF7002FF2290003A1234AFE0700E900090
:10330F003A1234AFEFF090003AE004F090003AE058
:0A331F00D394094002E4F07F00227D
:10332900E4FF74302F1234B2E4F074202F1234A465
:10333900E4F00FEFB409EBE490002AF090003AF0C2
:0933490090002BF090003BF022F3
:1033520090002DE004F0E0D39428402FE4F01234E2
:103362009EE090002FF0E0D39400401F7838E630C2
:10337200E019E6FFC4131313540130E00E90150058
:0C338200E04420F0E054BFF01232292299
:10338E00900790E4F0A374FAF0901500E020E12588
:10339E0090079074FFF5F0124A54208F0A90079010
:1033AE00E07002A3E070E2901500E054EFF01232EC
:0733BE0010C28FC322D322CD
:0D33C500C2AB758DFA758B01D28EC28F22BE
:1033D200E560540F25E0243EF582E434341234BA19
:0333E200024AE8B4
:1033E500901500E030E319901504E0F560E4F5610F
:1033F500E560C4540F25E0245EF582E4343480177B
:10340500901504E0F563E5616015E561540725E075
:10341500247EF582E434341234BA124AE8800BE58E
:103425006CC394FF5004056C80F5901500E030E402
:093435000512338E40AAD2AB222D
:1035C90034D534EA35003514404F4050405140520B
:1035D9004053405440554056405740584059405A2E
:1035E9004107410D41134119411F4125412B4131EA
:1035F900355D413741474157416741774187419798
:1036090040CC34D934EE34F540CD40CE40CF40D013
:1036190000000000000000000000000000000000A1
:0D362900F583E493FE740193CAEECAF92202
:0E34C700901510E030E10612355012357022DB
:0434D50075670122F4
:1034D900AF691240438F6A901511E56AF0E4F56708
:0134E90022C0
:0434EA0075670222DE
:0734EE0085696A756703227E
:0B34F500AD69AF6A124049E4F56722A0
:10350000901510E04410F09015117490F07838E6A2
:043510004480F622DB
:08351400901510E054EFF022C5
:10351C00900790E4F0A374FAF0901510E020E122EB
:10352C0090079074FFF5F0124A54208F0A90079080
:10353C00E07002A3E070E2901510E054EFF0C28F3F
:04354C00C322D322A1
:0D355000C2AB758DFA758B01D28EC28F2231
:10355D00E566540F25E024C9F582E4343512362989
:03356D00024AE827
:10357000901510E030E319901514E0F566E4F56756
:10358000E566C4540F25E024E9F582E4343580175C
:10359000901514E0F569E5676015E567540725E0C7
:1035A0002409F582E43436123629124AE8800BE504
:1035B0006DC394FF5004056D80F5901510E030E464
:0935C0000512351C40AAD2AB2211
:10399000F0902A8EE04408F0E4F0902A8822A3F008
:1039A000E4A3F0A3F0A37405F0A3F0E4FB7F3022BE
:1039B000902A8E7401F0902A88E0227C007D55E4E4
:1039C000900760F022CDEFCD900050E0902A0A22BF
:1039D0003E900773F0A3EFF09007732274FFF0900E
:1039E0002A8922E0902A8BF0EBC3940222902A8845
:0439F000E0546C2211
:103636001239BB741E12399E123675EF6026900041
:1036460056E0540F90005FF0900057E0541F900032
:1036560060F0900058E0540F900061F090075B74A2
:0F36660001F08005E490075BF090075BE0FF2226
:1036750090075DECF0A3EDF01239C5B40105746552
:10368500F080037464F01239911239DCEDF0900783
:1036950065E0902A8AF09007641239E35009EB241B
:1036A500A1902A8CF08006902A8C74A1F090076076
:1036B500E0FFC394025009EF2402902A8DF08006A2
:1036C500902A8D7402F0900761E0902A8DF09007A2
:1036D50062E0902A8DF0900763E0902A8DF07F01DB
:1036E5007E00121483902A88E030E003308FF63094
:1036F5008F037F00221239B030E6037F00227F015D
:103705007E00121483902A88E030E103D38001C340
:103715004003308FF0308F037F00221239ED6003B4
:103725007F0022E4FF900764E0FEEFC39E501890EF
:103735002A8FE0FE90075DE0FCA3E02FF582E43CD4
:10374500F583EEF00F80DE12399174FEF090075D7F
:10375500E0FEA3E0F5828E83E0B44008900766742E
:0F37650001F08005E4900766F0900766E0FF2210
:10377400CAEFCA1239C8B401057465F080037464D1
:10378400F01239911239DCEAF0900770E0902A8A3D
:10379400F090076F1239E35009EB24A5902A8CF0BE
:1037A4008006902A8C74A1F090076BE0FFC394020A
:1037B4005009EF2402902A8DF08006902A8D74021D
:1037C400F090076CE0902A8DF090076DE0902A8DC0
:1037D400F090076EE0902A8DF0E4900771F0900766
:1037E40070E024FAFFA3E0FEC39F5015ED2EF5828E
:1037F400E43CF583E0902A8DF0900771E004F080BA
:10380400DD7F017E00121483902A88E030E00330CB
:103814008FF6308F037F00221239B030E6037F0029
:10382400227F017E00121483902A88E030E103D3C2
:103834008001C34003308FF0308F037F00221239A0
:10384400ED60037F0022902A8FE090077112399077
:1038540074FEF0900771E0B44006A37401F0800593
:0B386400E4900772F0900772E0FF2272
:10386F001239C5B401057465F080037464F0123920
:10387F00911239DCEDF0902A8A7401F0902A8B04B2
:10388F00F0902A8C14F0E4902A8DF07F01FE121430
:10389F0083902A88E030E003308FF6308F037F006B
:1038AF00221239B030E6037F00227F017E0012140E
:1038BF0083902A88E030E103D38001C34003308F27
:1038CF00F0308F037F00221239ED60037F002290CA
:1038DF002A8FE0900051F0902A8FE0900052123919
:0738EF009074FEF07F01223E
:1038F6007F3012386FEF6401704B900052E0FE90FB
:103906000051E07C002400FFEC1239D0E0FEA3E079
:10391600F4FFEEF4FEEF2401FFE41239D0E0FEA33B
:10392600E07806CEC313CE13D8F9FF900054E070AA
:10393600037464F0900054E0FEEFD39E5007E0C39A
:063946009F900062F022D8
:10394C001239BB741012399E123675EF601190004B
:10395C0057E0900053F0900058E0900054F0229003
:0C396C0000547464F09000537410F022BA
:103978001239BBA3740A12399F123675EF6008908A
:083988000057E0900063F022FB
:103AB00000000000010203040412787201020304F2
:103AC000041279710102030404127A7001020304E2
:103AD00004127B6F0102030404127C6E01020304D2
:103AE00004127D6D0102030404127E6C01020304C2
:103AF00004127F6B010203040412806A01020304B2
:103B00000412816901020304041201020102030488
:103B1000041201020102030404120102010203045F
:103B2000041201020102030404120102010203044F
:103B3000041201020102030404120102010203043F
:103B4000041201020102030404120102010203042F
:083B500004120102010203044A
:1039F400900775EFF07F067EF1121483902805E09E
:0F3A040020E503308FF6900775E0902800F02240
:103A1300900776EFF07F067EF1121483902705E07E
:0F3A230020E503308FF6900776E0902700F02221
:103A3200900777EFF0E4A3F0900778E0FFC39408D3
:103A42005029900777E075F008A424B0F582E43499
:103A52003AF583E5822FF582E43583F583E493FF1B
:0C3A62001239F4900778E004F080CD22C7
:103A6E00E490006EF090006EE02478F582E434006D
:0F3A7E00F583E4F090006EE004F0E0B404E7227A
:103A8D00E490006FF090006FE02470F582E4340054
:0F3A9D00F583E4F090006FE004F0E0B404E7225A
:023AAC000022F6
:023AAE000022F4
:10004000A5A5A5A5A5A5A5B587305A5AAAAA55550F
:10005000495438373358202D495445205465636836
:070060002E20496E632E0003
:02FEFE001206EA
:103C8F00902C02E04440F0902C00E04410F0902C77
:103C9F0002E04480F0902C01E04410F022902C02BE
:103CAF00E054BFF0902C00E054EFF0902C02E05461
:103CBF007FF0902C01E054EFF022EFF090077B02A1
:023CCF004A7D2C
:103B58007DFF7C068D828C83E0F9E004F0E0B4FF01
:103B680027E4F09007797406F0A3E4F0FE90077953
:103B7800E0FAA3E0F5828A83E4F090077975F00112
:103B8800124A540EEEB4FFE5CEE9CEE92400FDE476
:093B980034068D82F583EFF02262
:103BA100CDEFCDCCEECCECFFEDFB123B58CFEBCF04
:033BB100023B587C
:103BB40090077B124A89123CCB7818124A6ACAEFE2
:103BC400CA123CCB7810124A6A90077F123CC9781B
:103BD40008124A6A900780123CC9E4CBEFCBCFEAC3
:103BE400CF123B5890077FE0FF123B58900780E0CC
:0A3BF400FF123B58CFEBCF023B5805
:103BFE00902C04E020E31B902C03E020E30A123CFF
:103C0E008F9005057401F022900505E07024123C9A
:103C1E00AC22902C03E020E50A123CAC9005057412
:103C2E0002F022900505E0B40108123C8FE49005E5
:033C3E0005F0226C
:063C41001246920233520C
:013C4700225A
:013C48002259
:013C49002258
:013C4A002257
:0C3C4B00900080E0640160031249EE224A
:013C5700224A
:013C58002249
:013C59002248
:013C5A002247
:013C5B002246
:013C5C002245
:013C5D002244
:033C5E0002471901
:013C61002240
:013C6200223F
:013C6300223E
:013C6400223D
:013C6500223C
:103C6600900781EEF0A3EFF0D3900782E0940090E6
:103C76000781E094004011E490200BF090078174D6
:093C8600FFF5F0124A5480E0221F
:083CD100902C02E04408F022EF
:083CD900902C02E054F7F022E8
:103CE1009029077407F09029307401F09029CE745F
:103CF100FFF0E4902C06F0902907F0902927E0448A
:103D010008F09029CAE04408F09029C2E04408F084
:103D11009029077407F0902927E04440F09029C2C8
:103D2100E04440F09029CAE04440F0902C02E05475
:103D3100BFF0902925E04410F09029C8E04410F02C
:103D41009029C0E04410F0902C00E054EFF090294D
:103D510027E04480F09029CAE04480F09029C2E035
:103D61004480F0902C02E0547FF0902926E044102A
:103D7100F09029C9E04410F09029C1E04410F0907E
:0C3D81002C01E054EFF0E4902907F02240
:103F14003DC63DC73DC83DC93DCA3DCB3DCC3DCD69
:103F24003DCE3DCF3DD03DD13DD23DD33DD43DD519
:103F34003DD63DD73DD83DD93DDA3DDB3DDC3DDDC9
:103F44003DDE3DDF3DE03DE13DE23DE33DE43DE579
:103F54003DE63DE73DE83DE93DEA3DEB3DEC3DED29
:103F64003DEE3DEF3DF03DF13DF23DF33DF43DF5D9
:103F74003DF63DF73DF83DF93DFA3DFB3DFC3DFD89
:103F84003DFE3DFF3E003E013E023E033E043E0533
:103F94003E063E073E083E093E0A3E0B3E0C3E0DE1
:103FA4003E0E3E0F3E103E113E123E153E163E178B
:103FB4003E183E193E1A3E1B3E1C3E1D3E1E3E1F31
:103FC4003E203E213E223E233E243E253E263E27E1
:103FD4003E283E293E2A3E2B3E2C3E2D3E2E3E2F91
:103FE4003E303E313E323E333E343E353E363E3741
:103FF4003E383E383E383E383E383E383E383E380D
:104004003E383E383E383E383E383E383E383E38FC
:10401400E560540F25E024F4F582E4343FF583E4AD
:1040240093FE740193CAEECAF922E560540F25E0A9
:0F4034002274057899F608EFF6F5827583052258
:063D8D00124035E0FF22A8
:063D9300124035EDF022A4
:013D99002207
:013D9A002206
:013D9B002205
:083D9C00902C02E04440F022EB
:083DA400902C00E04410F02215
:103DAC00902C02E04480F0902C01E04410F090053F
:053DBC00057401F02276
:013DC10022DF
:013DC20022DE
:013DC30022DD
:013DC40022DC
:013DC50022DB
:013DC60022DA
:013DC70022D9
:013DC80022D8
:013DC90022D7
:013DCA0022D6
:013DCB0022D5
:013DCC0022D4
:013DCD0022D3
:013DCE0022D2
:013DCF0022D1
:013DD00022D0
:013DD10022CF
:013DD20022CE
:013DD30022CD
:013DD40022CC
:013DD50022CB
:013DD60022CA
:013DD70022C9
:013DD80022C8
:013DD90022C7
:013DDA0022C6
:013DDB0022C5
:013DDC0022C4
:013DDD0022C3
:013DDE0022C2
:013DDF0022C1
:013DE00022C0
:013DE10022BF
:013DE20022BE
:013DE30022BD
:013DE40022BC
:013DE50022BB
:013DE60022BA
:013DE70022B9
:013DE80022B8
:013DE90022B7
:013DEA0022B6
:013DEB0022B5
:013DEC0022B4
:013DED0022B3
:013DEE0022B2
:013DEF0022B1
:013DF00022B0
:013DF10022AF
:013DF20022AE
:013DF30022AD
:013DF40022AC
:013DF50022AB
:013DF60022AA
:013DF70022A9
:013DF80022A8
:013DF90022A7
:013DFA0022A6
:013DFB0022A5
:013DFC0022A4
:013DFD0022A3
:013DFE0022A2
:013DFF0022A1
:013E0000229F
:013E0100229E
:013E0200229D
:013E0300229C
:013E0400229B
:013E0500229A
:013E06002299
:013E07002298
:013E08002297
:013E09002296
:013E0A002295
:013E0B002294
:013E0C002293
:013E0D002292
:013E0E002291
:013E0F002290
:013E1000228F
:013E1100228E
:033E12000221C4C6
:013E1500228A
:013E16002289
:013E17002288
:013E18002287
:013E19002286
:013E1A002285
:013E1B002284
:013E1C002283
:013E1D002282
:013E1E002281
:013E1F002280
:013E2000227F
:013E2100227E
:013E2200227D
:013E2300227C
:013E2400227B
:013E2500227A
:013E26002279
:013E27002278
:013E28002277
:013E29002276
:013E2A002275
:013E2B002274
:013E2C002273
:013E2D002272
:013E2E002271
:013E2F002270
:013E3000226F
:013E3100226E
:013E3200226D
:013E3300226C
:013E3400226B
:013E3500226A
:013E36002269
:013E37002268
:013E38002267
:013E39002266
:013E3A002265
:013E3B002264
:013E3C002263
:013E3D002262
:103E3E009007837402F0A3E4F0901500E030E110D7
:103E4E00E030E3037F0022901504E0F5637F01224A
:103E5E0090078374FFF5F0124A54900783E07002C6
:063E6E00A3E070D5FF2265
:063E7400124014024AE8AE
:063E7A00124014024AE8A8
:063E8000124014024AE8A2
:063E8600124014024AE89C
:063E8C00124014024AE896
:063E9200124014024AE890
:063E9800124014024AE88A
:063E9E00124014024AE884
:103EA40012402E2414F582E4343F124021024AE8E1
:103EB40012402E2434F582E4343F124021024AE8B1
:103EC40012402E2454F582E4343F124021024AE881
:103ED40012402E2474F582E4343F124021024AE851
:103EE40012402E2494F582E4343F124021024AE821
:103EF40012402E24B4F582E4343F124021024AE8F1
:103F040012402E24D4F582E4343F124021024AE8C0
:1041A700405B405C405D405E405F40604061406214
:1041B7004063406440654066406740684069406AC4
:1041C700406B406C406D406E406F40704071407274
:1041D7004073407440754076407740784079407A24
:1041E700407B407C407D407E407F408040814082D4
:1041F7004083408440854086408740884089408A84
:10420700408B408C408D408E408F40904091409233
:104217004093409440954096409740984099409AE3
:10422700409B409C409D409E409F40A040A140A293
:1042370040A340A440A540A640A740A840A940AA43
:1042470040AB40AC40AD40AE40AF40B040B140B2F3
:1042570040B340B440B540B640B740B840B940BAA3
:1042670040BB40BC40BD40BE40BF40C040C140C253
:1042770040C340C440C540C640C740C840C940CA03
:1042870040CB40CB40CB40CB40CB40CB40CB40CBCF
:1042970040CB40CB40CB40CB40CB40CB40CB40CBBF
:1042A700E566540F25E02487F582E43442F583E47C
:1042B70093FE740193CAEECAF922E566540F25E00E
:0F42C7002274057899F608EFF6F58275830522C3
:064043001242C8E0FF225A
:064049001242C8EDF02256
:01404F00224E
:01405000224D
:01405100224C
:01405200224B
:01405300224A
:014054002249
:014055002248
:014056002247
:014057002246
:014058002245
:014059002244
:01405A002243
:01405B002242
:01405C002241
:01405D002240
:01405E00223F
:01405F00223E
:01406000223D
:01406100223C
:01406200223B
:01406300223A
:014064002239
:014065002238
:014066002237
:014067002236
:014068002235
:014069002234
:01406A002233
:01406B002232
:01406C002231
:01406D002230
:01406E00222F
:01406F00222E
:01407000222D
:01407100222C
:01407200222B
:01407300222A
:014074002229
:014075002228
:014076002227
:014077002226
:014078002225
:014079002224
:01407A002223
:01407B002222
:01407C002221
:01407D002220
:01407E00221F
:01407F00221E
:01408000221D
:01408100221C
:01408200221B
:01408300221A
:014084002219
:014085002218
:014086002217
:014087002216
:014088002215
:014089002214
:01408A002213
:01408B002212
:01408C002211
:01408D002210
:01408E00220F
:01408F00220E
:01409000220D
:01409100220C
:01409200220B
:01409300220A
:014094002209
:014095002208
:014096002207
:014097002206
:014098002205
:014099002204
:01409A002203
:01409B002202
:01409C002201
:01409D002200
:01409E0022FF
:01409F0022FE
:0140A00022FD
:0140A10022FC
:0140A20022FB
:0140A30022FA
:0140A40022F9
:0140A50022F8
:0140A60022F7
:0140A70022F6
:0140A80022F5
:0140A90022F4
:0140AA0022F3
:0140AB0022F2
:0140AC0022F1
:0140AD0022F0
:0140AE0022EF
:0140AF0022EE
:0140B00022ED
:0140B10022EC
:0140B20022EB
:0140B30022EA
:0140B40022E9
:0140B50022E8
:0140B60022E7
:0140B70022E6
:0140B80022E5
:0140B90022E4
:0140BA0022E3
:0140BB0022E2
:0140BC0022E1
:0140BD0022E0
:0140BE0022DF
:0140BF0022DE
:0140C00022DD
:0140C10022DC
:0140C20022DB
:0140C30022DA
:0140C40022D9
:0140C50022D8
:0140C60022D7
:0140C70022D6
:0140C80022D5
:0140C90022D4
:0140CA0022D3
:0140CB0022D2
:0140CC0022D1
:0140CD0022D0
:0140CE0022CF
:0140CF0022CE
:0140D00022CD
:1040D1009007857402F0A3E4F0901510E030E11030
:1040E100E030E3037F0022901514E0F5697F01229F
:1040F10090078574FFF5F0124A54900785E070022D
:06410100A3E070D5FF22CF
:064107001242A7024AE883
:06410D001242A7024AE87D
:064113001242A7024AE877
:064119001242A7024AE871
:06411F001242A7024AE86B
:064125001242A7024AE865
:06412B001242A7024AE85F
:064131001242A7024AE859
:104137001242C124A7F582E434411242B4024AE88C
:104147001242C124C7F582E434411242B4024AE85C
:104157001242C124E7F582E434411242B4024AE82C
:104167001242C12407F582E434421242B4024AE8FB
:104177001242C12427F582E434421242B4024AE8CB
:104187001242C12447F582E434421242B4024AE89B
:104197001242C12467F582E434421242B4024AE86B
:0C476500FFFF55550000000000000000A0
:1047710074FF75F0FB124A54C3900083E0940490D7
:104781000082E0940022E4900081F0900082F0A386
:10479100F090008022900082E4F0A322740A900736
:1047A10005F0E4FBFD22900088E475F001124A5403
:1047B100D3900089E022900080F0E47838F6E62278
:1047C100900081E004F0229007057432F0E4FBFDD3
:0147D10022C5
:1042D600900080E0124A9542FF00430201435A02D1
:1042E6004317034328044328054340064345074331
:1042F6004A08434F09000043550243881243D0122F
:104306004406124445900080E0B4010312445980EB
:104316003B1243D0124470900080E0640370350273
:104326004445124388902C04E030E3047F01800268
:104336007F00EF6401701D0243B91244D3800D1251
:10434600454B800812462580031245BD02465FE4B0
:05435600900080F02240
:10435B00900084E0D394004023900080E0B40514D7
:10436B00900085E07002800C900085E014F0E07006
:0D437B000B0243B9900084E0900085F02211
:10438800D3900087E09400900086E0940040077482
:10439800FFF5F0024A54902C03E030E3047F0180DB
:1043A800027F0012479D121823EFB402031243B98B
:0143B80022E2
:0743B9001247877406F02291
:1043C0001247877409F0900086E4F0A374C8F022C5
:1043D000902C03E030E3047F0180027F0012479DB0
:0943E000121823900787EFF02268
:1043E900902C03E030E3047F0180027F00746412A3
:0D43F900479F121823EFB402031243C022A5
:10440600900080E064046036E064056031E0602E70
:10441600902C03E030E3047F0180027F001247C83E
:10442600121823EFB403101247A794E8900088E00F
:0F4436009403400A0243C0E4900088F0A3F022F0
:10444500902C04E030E303D38001C3923820380375
:044455001243C0222C
:10445900902C03E030E503D38001C392392039065B
:074469001247877408F022DE
:10447000902C03E030E503D38001C3923A303A0632
:074480001247877407F022C8
:104487009000807401F0E4900203F07838F6E64477
:0544970001F602498A54
:10449C0074051247B74410F6E4900081F090008246
:0444AC00F0A3F02267
:0944B00074031247B74404F6221C
:0C44B90090008074011247BA4401F62202
:0E44C500901007740FF0901001E04410F022E8
:1044D300D312477A4009124771506CE4F0A3F0906D
:1044E3000081E0124A954511004519014521024515
:1044F3004703454704452905452B06452D07453503
:104503000845350945350A453D0B0000454212472C
:1045130096740FF0802E1247967496F080261247F9
:10452300967450F0801E800280001247967405F046
:104533008012124796740AF0800A1244878005E4B9
:08454300900081F01247C12233
:10454B00D312477A40091247715050E4F0A3F09010
:10455B000081E0124A954583004585014587024558
:10456B00890345910445910545A30645A30745A33A
:10457B00084599090000459E80048002800012477F
:10458B00967405F08012124796740AF0800A124452
:0C459B00878005E4900081F01247C122E7
:1045A700E4900081F07F057E0012161F1245BD9032
:0645B7000081E070F0221B
:1045BD00D312477A4009124771505CE4F0A3F09092
:1045CD000081E0124A95462100462101462102460E
:1045DD000403460604462105462106460E07460EEF
:1045ED0008460E09460E0A460E0B460E0C460E0DDB
:1045FD0046160E0000461B8000124796740AF08086
:10460D00131247967405F0800B12449C8006E490BB
:08461D000081F0221247C122C6
:10462500D312477A4009124771502EE4F0A3F09057
:104635000081E024FC600D14600A240524F750165F
:10464500600A800D124796740AF0800A1244B08001
:0A46550005E4900081F01247C12235
:10465F00902C03E030E3047F0180027F001247C8F3
:10466F00121823EFB403141247A794DC900088E0CC
:10467F009405400EE4F0A3F002449CE4900088F00F
:03468F00A3F02273
:10469200902C04E030E3047F0180027F00EF64018C
:1046A2007059902C03E030E5047F0180027F00EF17
:1046B2006401702F900080E064056007E06004E010
:1046C200B4040B124487902923E054FEF022900098
:1046D20080E0640370401244B9902923E054FEF054
:1046E20002498A900080E0B40104740AF02290002A
:1046F20080E0640A70201244B08014900080E0646C
:10470200016009E064036004E0B40A0A12449C9068
:074712002923E04401F0221D
:10471900900201E025E0F0E0700204F0E4FF90006F
:1047290080E0B405027F03900080E0B404027F02B8
:10473900900080E0B403027F01EF25E02465F58253
:10474900E43447F583E493FE740193FF900201E09A
:0C475900FDEF5D6003023CD1123CD92250
:0448F9009555A5F537
:0E48FD00901105E04480F09011017480F022CB
:1047D200902307E0FF24FC600D24FE603224047065
:1047E2004412482F803F902306E0543FFFE4FEEE40
:1047F200C39F5014902300E0FD74F02EF582E43440
:1048020000F583EDF00E80E712482F7F8E80139023
:104812002302E054DFF01248CA902302E04428F059
:104822007FCB123B58901105E04480F02290230286
:0F483200E054DFF01248CA902302E04428F0223D
:104841009029077407F0900080E0640160079029C7
:1048510023E04401F0902907740AF0902930740193
:10486100F0901109E04480F01248FDD2AAD2AF9035
:104871002301E04420F0E4F0E04410F0E49023064A
:10488100F09023057433F0902301E054EFF090236E
:10489100027401F01248CA902302E04420F09023F0
:1048A10001E0440AF0902302E04402F0902303E087
:0848B10054BFF0E04420F022A6
:0A48B900901105E0547F124903221C
:0748C3001248411248FD22DA
:0F48CA009023037480F000902303E020E7F9228D
:1048D900902302E0547FF01248CA902302E04480FA
:0248E900F022BB
:0348EB000247D2AF
:0B48EE007F119000F0E4F0A3DFFC223B
:0A493C009000A3F0E49000A4F02224
:06490B0090012AEFF022EA
:06491100743312493C2240
:06491700744412493C2229
:01491D002277
:01491E002276
:10491F00900119E06401600F90011AE064016007D3
:0D492F0090011BE0B401037F01227F0022F4
:08FFF80006000000FFFFFFFFFF
:0C49F200902A00E04480F0E054FEF02227
:10494600EFB4FF08EDB4FF04E4FEFF22EFFE7C00A7
:10495600E42DFFEC3E90078EF0A3EFF090078EE07B
:10496600FEA3E0FBCAEECAE4F9F87FB87E4C7D0AE6
:10497600124BBC90078AEEF0A3EFF090078AE0FE98
:04498600A3E0FF2289
:10498A001249F2902A0B748FF0902A137433F09024
:10499A002A1474C0F0902A557440F0902A15748530
:1049AA00F0E4902A60F0A37432F0A37450F0902AD5
:1049BA006374B9F0902A647485F0A37402F0A37446
:1049CA0010F0902A90743CF0A37488F0A37422F03B
:1049DA00902A517403F0902A5074FFF0902A00E054
:0449EA004401F02272
:0449EE001249F22256
:030000000200708B
:100070007581D01213F9C0E0902006E090000AF0DC
:05008000D0E00200C009
:10008500020200E493A3F8E493A34003F68001F28F
:1000950008DFF48029E493A3F85407240CC8C3337C
:1000A500C4540F4420C8834004F456800146F6DF4B
:1000B500E4800B01020408102040809049FEE47E94
:1000C500019360BCA3FF543F30E509541FFEE49340
:1000D500A360010ECF54C025E060A840B8E493A307
:1000E500FAE493A3F8E493A3C8C582C8CAC583CA32
:1000F500F0A3C8C582C8CAC583CADFE9DEE780BEEA
:0149FE0000B8
:1049FF00BC000BBE0029EF8DF084FFADF022E4CC9C
:104A0F00F875F008EF2FFFEE33FEEC33FCEE9DEC64
:104A1F00984005FCEE9DFE0FD5F0E9E4CEFD22EDAA
:104A2F00F8F5F0EE8420D21CFEADF075F008EF2FF4
:104A3F00FFED33FD4007985006D5F0F222C398FDE5
:054A4F000FD5F0EA2282
:104A5400C5F0F8A3E028F0C5F0F8E58215827002ED
:064A64001583E038F0228A
:104BBC00C2D5E830E70FB2D5E4C39BFBE49AFAE424
:104BCC0099F9E498F8EC30E717B2D5124BF2124B86
:104BDC002AE4C39BFBE49AFAE499F9E498F880037D
:104BEC00124B2A30D50DE4C39FFFE49EFEE49DFDDD
:044BFC00E49CFC2217
:104A6A00E8600FECC313FCED13FDEE13FEEF13FF2A
:034A7A00D8F1224E
:0C4A7D00E0FCA3E0FDA3E0FEA3E0FF22AC
:0C4A8900ECF0A3EDF0A3EEF0A3EFF022A0
:104A9500D083D082F8E4937012740193700DA3A3B0
:104AA50093F8740193F5828883E4737402936860C4
:064AB500EFA3A3A380DFC4
:104ABB00D083D082F8E4937012740193700DA3A38A
:104ACB0093F8740193F5828883E473740293B5F0C1
:0D4ADB00067403936860E9A3A3A3A380D829
:064AE8008A838982E47359
:104AEE0075F008758200EF2FFFEE33FECD33CDCC7F
:104AFE0033CCC58233C5829BED9AEC99E582984002
:104B0E000CF582EE9BFEED9AFDEC99FC0FD5F0D6DE
:104B1E00E4CEFBE4CDFAE4CCF9A88222B800C1B908
:104B2E000059BA002DEC8BF084CFCECDFCE5F0CB46
:104B3E00F97818EF2FFFEE33FEED33FDEC33FCEB7F
:104B4E0033FB10D703994004EB99FB0FD8E5E4F93A
:104B5E00FA227818EF2FFFEE33FEED33FDEC33FC27
:104B6E00C933C910D7059BE99A4007EC9BFCE99A1B
:104B7E00F90FD8E0E4C9FAE4CCFB2275F010EF2F60
:104B8E00FFEE33FEED33FDCC33CCC833C810D70760
:104B9E009BEC9AE899400AED9BFDEC9AFCE899F89B
:0E4BAE000FD5F0DAE4CDFBE4CCFAE4C8F9222E
:00000001FF
